{
  "_format": "hh-sol-artifact-1",
  "contractName": "InternToken",
  "sourceName": "contracts/InternToken.sol",
  "abi": [
    {
      "inputs": [
        {
          "internalType": "address",
          "name": "recipient",
          "type": "address"
        },
        {
          "internalType": "address",
          "name": "initialOwner",
          "type": "address"
        }
      ],
      "stateMutability": "nonpayable",
      "type": "constructor"
    },
    {
      "inputs": [],
      "name": "ECDSAInvalidSignature",
      "type": "error"
    },
    {
      "inputs": [
        {
          "internalType": "uint256",
          "name": "length",
          "type": "uint256"
        }
      ],
      "name": "ECDSAInvalidSignatureLength",
      "type": "error"
    },
    {
      "inputs": [
        {
          "internalType": "bytes32",
          "name": "s",
          "type": "bytes32"
        }
      ],
      "name": "ECDSAInvalidSignatureS",
      "type": "error"
    },
    {
      "inputs": [
        {
          "internalType": "address",
          "name": "spender",
          "type": "address"
        },
        {
          "internalType": "uint256",
          "name": "allowance",
          "type": "uint256"
        },
        {
          "internalType": "uint256",
          "name": "needed",
          "type": "uint256"
        }
      ],
      "name": "ERC20InsufficientAllowance",
      "type": "error"
    },
    {
      "inputs": [
        {
          "internalType": "address",
          "name": "sender",
          "type": "address"
        },
        {
          "internalType": "uint256",
          "name": "balance",
          "type": "uint256"
        },
        {
          "internalType": "uint256",
          "name": "needed",
          "type": "uint256"
        }
      ],
      "name": "ERC20InsufficientBalance",
      "type": "error"
    },
    {
      "inputs": [
        {
          "internalType": "address",
          "name": "approver",
          "type": "address"
        }
      ],
      "name": "ERC20InvalidApprover",
      "type": "error"
    },
    {
      "inputs": [
        {
          "internalType": "address",
          "name": "receiver",
          "type": "address"
        }
      ],
      "name": "ERC20InvalidReceiver",
      "type": "error"
    },
    {
      "inputs": [
        {
          "internalType": "address",
          "name": "sender",
          "type": "address"
        }
      ],
      "name": "ERC20InvalidSender",
      "type": "error"
    },
    {
      "inputs": [
        {
          "internalType": "address",
          "name": "spender",
          "type": "address"
        }
      ],
      "name": "ERC20InvalidSpender",
      "type": "error"
    },
    {
      "inputs": [
        {
          "internalType": "uint256",
          "name": "deadline",
          "type": "uint256"
        }
      ],
      "name": "ERC2612ExpiredSignature",
      "type": "error"
    },
    {
      "inputs": [
        {
          "internalType": "address",
          "name": "signer",
          "type": "address"
        },
        {
          "internalType": "address",
          "name": "owner",
          "type": "address"
        }
      ],
      "name": "ERC2612InvalidSigner",
      "type": "error"
    },
    {
      "inputs": [],
      "name": "EnforcedPause",
      "type": "error"
    },
    {
      "inputs": [],
      "name": "ExpectedPause",
      "type": "error"
    },
    {
      "inputs": [
        {
          "internalType": "address",
          "name": "account",
          "type": "address"
        },
        {
          "internalType": "uint256",
          "name": "currentNonce",
          "type": "uint256"
        }
      ],
      "name": "InvalidAccountNonce",
      "type": "error"
    },
    {
      "inputs": [],
      "name": "InvalidShortString",
      "type": "error"
    },
    {
      "inputs": [
        {
          "internalType": "address",
          "name": "owner",
          "type": "address"
        }
      ],
      "name": "OwnableInvalidOwner",
      "type": "error"
    },
    {
      "inputs": [
        {
          "internalType": "address",
          "name": "account",
          "type": "address"
        }
      ],
      "name": "OwnableUnauthorizedAccount",
      "type": "error"
    },
    {
      "inputs": [
        {
          "internalType": "string",
          "name": "str",
          "type": "string"
        }
      ],
      "name": "StringTooLong",
      "type": "error"
    },
    {
      "anonymous": false,
      "inputs": [
        {
          "indexed": true,
          "internalType": "address",
          "name": "owner",
          "type": "address"
        },
        {
          "indexed": true,
          "internalType": "address",
          "name": "spender",
          "type": "address"
        },
        {
          "indexed": false,
          "internalType": "uint256",
          "name": "value",
          "type": "uint256"
        }
      ],
      "name": "Approval",
      "type": "event"
    },
    {
      "anonymous": false,
      "inputs": [],
      "name": "EIP712DomainChanged",
      "type": "event"
    },
    {
      "anonymous": false,
      "inputs": [
        {
          "indexed": true,
          "internalType": "address",
          "name": "previousOwner",
          "type": "address"
        },
        {
          "indexed": true,
          "internalType": "address",
          "name": "newOwner",
          "type": "address"
        }
      ],
      "name": "OwnershipTransferred",
      "type": "event"
    },
    {
      "anonymous": false,
      "inputs": [
        {
          "indexed": false,
          "internalType": "address",
          "name": "account",
          "type": "address"
        }
      ],
      "name": "Paused",
      "type": "event"
    },
    {
      "anonymous": false,
      "inputs": [
        {
          "indexed": true,
          "internalType": "address",
          "name": "from",
          "type": "address"
        },
        {
          "indexed": true,
          "internalType": "address",
          "name": "to",
          "type": "address"
        },
        {
          "indexed": false,
          "internalType": "uint256",
          "name": "value",
          "type": "uint256"
        }
      ],
      "name": "Transfer",
      "type": "event"
    },
    {
      "anonymous": false,
      "inputs": [
        {
          "indexed": false,
          "internalType": "address",
          "name": "account",
          "type": "address"
        }
      ],
      "name": "Unpaused",
      "type": "event"
    },
    {
      "inputs": [],
      "name": "DOMAIN_SEPARATOR",
      "outputs": [
        {
          "internalType": "bytes32",
          "name": "",
          "type": "bytes32"
        }
      ],
      "stateMutability": "view",
      "type": "function"
    },
    {
      "inputs": [
        {
          "internalType": "address",
          "name": "owner",
          "type": "address"
        },
        {
          "internalType": "address",
          "name": "spender",
          "type": "address"
        }
      ],
      "name": "allowance",
      "outputs": [
        {
          "internalType": "uint256",
          "name": "",
          "type": "uint256"
        }
      ],
      "stateMutability": "view",
      "type": "function"
    },
    {
      "inputs": [
        {
          "internalType": "address",
          "name": "spender",
          "type": "address"
        },
        {
          "internalType": "uint256",
          "name": "value",
          "type": "uint256"
        }
      ],
      "name": "approve",
      "outputs": [
        {
          "internalType": "bool",
          "name": "",
          "type": "bool"
        }
      ],
      "stateMutability": "nonpayable",
      "type": "function"
    },
    {
      "inputs": [
        {
          "internalType": "address",
          "name": "account",
          "type": "address"
        }
      ],
      "name": "balanceOf",
      "outputs": [
        {
          "internalType": "uint256",
          "name": "",
          "type": "uint256"
        }
      ],
      "stateMutability": "view",
      "type": "function"
    },
    {
      "inputs": [
        {
          "internalType": "uint256",
          "name": "value",
          "type": "uint256"
        }
      ],
      "name": "burn",
      "outputs": [],
      "stateMutability": "nonpayable",
      "type": "function"
    },
    {
      "inputs": [
        {
          "internalType": "address",
          "name": "account",
          "type": "address"
        },
        {
          "internalType": "uint256",
          "name": "value",
          "type": "uint256"
        }
      ],
      "name": "burnFrom",
      "outputs": [],
      "stateMutability": "nonpayable",
      "type": "function"
    },
    {
      "inputs": [],
      "name": "decimals",
      "outputs": [
        {
          "internalType": "uint8",
          "name": "",
          "type": "uint8"
        }
      ],
      "stateMutability": "view",
      "type": "function"
    },
    {
      "inputs": [],
      "name": "eip712Domain",
      "outputs": [
        {
          "internalType": "bytes1",
          "name": "fields",
          "type": "bytes1"
        },
        {
          "internalType": "string",
          "name": "name",
          "type": "string"
        },
        {
          "internalType": "string",
          "name": "version",
          "type": "string"
        },
        {
          "internalType": "uint256",
          "name": "chainId",
          "type": "uint256"
        },
        {
          "internalType": "address",
          "name": "verifyingContract",
          "type": "address"
        },
        {
          "internalType": "bytes32",
          "name": "salt",
          "type": "bytes32"
        },
        {
          "internalType": "uint256[]",
          "name": "extensions",
          "type": "uint256[]"
        }
      ],
      "stateMutability": "view",
      "type": "function"
    },
    {
      "inputs": [
        {
          "internalType": "address",
          "name": "to",
          "type": "address"
        },
        {
          "internalType": "uint256",
          "name": "amount",
          "type": "uint256"
        }
      ],
      "name": "mint",
      "outputs": [],
      "stateMutability": "nonpayable",
      "type": "function"
    },
    {
      "inputs": [],
      "name": "name",
      "outputs": [
        {
          "internalType": "string",
          "name": "",
          "type": "string"
        }
      ],
      "stateMutability": "view",
      "type": "function"
    },
    {
      "inputs": [
        {
          "internalType": "address",
          "name": "owner",
          "type": "address"
        }
      ],
      "name": "nonces",
      "outputs": [
        {
          "internalType": "uint256",
          "name": "",
          "type": "uint256"
        }
      ],
      "stateMutability": "view",
      "type": "function"
    },
    {
      "inputs": [],
      "name": "owner",
      "outputs": [
        {
          "internalType": "address",
          "name": "",
          "type": "address"
        }
      ],
      "stateMutability": "view",
      "type": "function"
    },
    {
      "inputs": [],
      "name": "pause",
      "outputs": [],
      "stateMutability": "nonpayable",
      "type": "function"
    },
    {
      "inputs": [],
      "name": "paused",
      "outputs": [
        {
          "internalType": "bool",
          "name": "",
          "type": "bool"
        }
      ],
      "stateMutability": "view",
      "type": "function"
    },
    {
      "inputs": [
        {
          "internalType": "address",
          "name": "owner",
          "type": "address"
        },
        {
          "internalType": "address",
          "name": "spender",
          "type": "address"
        },
        {
          "internalType": "uint256",
          "name": "value",
          "type": "uint256"
        },
        {
          "internalType": "uint256",
          "name": "deadline",
          "type": "uint256"
        },
        {
          "internalType": "uint8",
          "name": "v",
          "type": "uint8"
        },
        {
          "internalType": "bytes32",
          "name": "r",
          "type": "bytes32"
        },
        {
          "internalType": "bytes32",
          "name": "s",
          "type": "bytes32"
        }
      ],
      "name": "permit",
      "outputs": [],
      "stateMutability": "nonpayable",
      "type": "function"
    },
    {
      "inputs": [],
      "name": "renounceOwnership",
      "outputs": [],
      "stateMutability": "nonpayable",
      "type": "function"
    },
    {
      "inputs": [],
      "name": "symbol",
      "outputs": [
        {
          "internalType": "string",
          "name": "",
          "type": "string"
        }
      ],
      "stateMutability": "view",
      "type": "function"
    },
    {
      "inputs": [],
      "name": "totalSupply",
      "outputs": [
        {
          "internalType": "uint256",
          "name": "",
          "type": "uint256"
        }
      ],
      "stateMutability": "view",
      "type": "function"
    },
    {
      "inputs": [
        {
          "internalType": "address",
          "name": "to",
          "type": "address"
        },
        {
          "internalType": "uint256",
          "name": "value",
          "type": "uint256"
        }
      ],
      "name": "transfer",
      "outputs": [
        {
          "internalType": "bool",
          "name": "",
          "type": "bool"
        }
      ],
      "stateMutability": "nonpayable",
      "type": "function"
    },
    {
      "inputs": [
        {
          "internalType": "address",
          "name": "from",
          "type": "address"
        },
        {
          "internalType": "address",
          "name": "to",
          "type": "address"
        },
        {
          "internalType": "uint256",
          "name": "value",
          "type": "uint256"
        }
      ],
      "name": "transferFrom",
      "outputs": [
        {
          "internalType": "bool",
          "name": "",
          "type": "bool"
        }
      ],
      "stateMutability": "nonpayable",
      "type": "function"
    },
    {
      "inputs": [
        {
          "internalType": "address",
          "name": "newOwner",
          "type": "address"
        }
      ],
      "name": "transferOwnership",
      "outputs": [],
      "stateMutability": "nonpayable",
      "type": "function"
    },
    {
      "inputs": [],
      "name": "unpause",
      "outputs": [],
      "stateMutability": "nonpayable",
      "type": "function"
    }
  ],
  "bytecode": "0x6101606040523480156200001257600080fd5b506040516200389b3803806200389b8339818101604052810190620000389190620008c8565b6040518060400160405280600b81526020017f496e7465726e546f6b656e000000000000000000000000000000000000000000815250806040518060400160405280600181526020017f3100000000000000000000000000000000000000000000000000000000000000815250836040518060400160405280600b81526020017f496e7465726e546f6b656e0000000000000000000000000000000000000000008152506040518060400160405280600381526020017f494e540000000000000000000000000000000000000000000000000000000000815250816003908162000123919062000b89565b50806004908162000135919062000b89565b5050506000600560006101000a81548160ff021916908315150217905550600073ffffffffffffffffffffffffffffffffffffffff168173ffffffffffffffffffffffffffffffffffffffff1603620001c85760006040517f1e4fbdf7000000000000000000000000000000000000000000000000000000008152600401620001bf919062000c81565b60405180910390fd5b620001d9816200030560201b60201c565b50620001f0600683620003cb60201b90919060201c565b61012081815250506200020e600782620003cb60201b90919060201c565b6101408181525050818051906020012060e08181525050808051906020012061010081815250504660a081815250506200024d6200042360201b60201c565b608081815250503073ffffffffffffffffffffffffffffffffffffffff1660c08173ffffffffffffffffffffffffffffffffffffffff168152505050505060006200029d6200048060201b60201c565b600a620002ab919062000e2e565b620f4240620002bb919062000e7f565b9050620002fc83620002d26200048060201b60201c565b600a620002e0919062000e2e565b6207a120620002f0919062000e7f565b6200048960201b60201c565b5050506200113d565b6000600560019054906101000a900473ffffffffffffffffffffffffffffffffffffffff16905081600560016101000a81548173ffffffffffffffffffffffffffffffffffffffff021916908373ffffffffffffffffffffffffffffffffffffffff1602179055508173ffffffffffffffffffffffffffffffffffffffff168173ffffffffffffffffffffffffffffffffffffffff167f8be0079c531659141344cd1fd0a4f28419497f9722a3daafe3b4186f6b6457e060405160405180910390a35050565b6000602083511015620003f157620003e9836200051660201b60201c565b90506200041d565b8262000403836200058360201b60201c565b600001908162000414919062000b89565b5060ff60001b90505b92915050565b60007f8b73c3c69bb8fe3d512ecc4cf759cc79239f7b179b0ffacaa9a75d522b39400f60e0516101005146306040516020016200046595949392919062000ef6565b60405160208183030381529060405280519060200120905090565b60006012905090565b600073ffffffffffffffffffffffffffffffffffffffff168273ffffffffffffffffffffffffffffffffffffffff1603620004fe5760006040517fec442f05000000000000000000000000000000000000000000000000000000008152600401620004f5919062000c81565b60405180910390fd5b62000512600083836200058d60201b60201c565b5050565b600080829050601f815111156200056657826040517f305a27a90000000000000000000000000000000000000000000000000000000081526004016200055d919062000fe2565b60405180910390fd5b805181620005749062001038565b60001c1760001b915050919050565b6000819050919050565b620005a0838383620005a560201b60201c565b505050565b620005b5620005cd60201b60201c565b620005c88383836200061760201b60201c565b505050565b620005dd6200084760201b60201c565b1562000615576040517fd93c066500000000000000000000000000000000000000000000000000000000815260040160405180910390fd5b565b600073ffffffffffffffffffffffffffffffffffffffff168373ffffffffffffffffffffffffffffffffffffffff16036200066d578060026000828254620006609190620010a8565b9250508190555062000743565b60008060008573ffffffffffffffffffffffffffffffffffffffff1673ffffffffffffffffffffffffffffffffffffffff16815260200190815260200160002054905081811015620006fc578381836040517fe450d38c000000000000000000000000000000000000000000000000000000008152600401620006f393929190620010e3565b60405180910390fd5b8181036000808673ffffffffffffffffffffffffffffffffffffffff1673ffffffffffffffffffffffffffffffffffffffff16815260200190815260200160002081905550505b600073ffffffffffffffffffffffffffffffffffffffff168273ffffffffffffffffffffffffffffffffffffffff16036200078e5780600260008282540392505081905550620007db565b806000808473ffffffffffffffffffffffffffffffffffffffff1673ffffffffffffffffffffffffffffffffffffffff168152602001908152602001600020600082825401925050819055505b8173ffffffffffffffffffffffffffffffffffffffff168373ffffffffffffffffffffffffffffffffffffffff167fddf252ad1be2c89b69c2b068fc378daa952ba7f163c4a11628f55a4df523b3ef836040516200083a919062001120565b60405180910390a3505050565b6000600560009054906101000a900460ff16905090565b600080fd5b600073ffffffffffffffffffffffffffffffffffffffff82169050919050565b6000620008908262000863565b9050919050565b620008a28162000883565b8114620008ae57600080fd5b50565b600081519050620008c28162000897565b92915050565b60008060408385031215620008e257620008e16200085e565b5b6000620008f285828601620008b1565b92505060206200090585828601620008b1565b9150509250929050565b600081519050919050565b7f4e487b7100000000000000000000000000000000000000000000000000000000600052604160045260246000fd5b7f4e487b7100000000000000000000000000000000000000000000000000000000600052602260045260246000fd5b600060028204905060018216806200099157607f821691505b602082108103620009a757620009a662000949565b5b50919050565b60008190508160005260206000209050919050565b60006020601f8301049050919050565b600082821b905092915050565b60006008830262000a117fffffffffffffffffffffffffffffffffffffffffffffffffffffffffffffffff82620009d2565b62000a1d8683620009d2565b95508019841693508086168417925050509392505050565b6000819050919050565b6000819050919050565b600062000a6a62000a6462000a5e8462000a35565b62000a3f565b62000a35565b9050919050565b6000819050919050565b62000a868362000a49565b62000a9e62000a958262000a71565b848454620009df565b825550505050565b600090565b62000ab562000aa6565b62000ac281848462000a7b565b505050565b5b8181101562000aea5762000ade60008262000aab565b60018101905062000ac8565b5050565b601f82111562000b395762000b0381620009ad565b62000b0e84620009c2565b8101602085101562000b1e578190505b62000b3662000b2d85620009c2565b83018262000ac7565b50505b505050565b600082821c905092915050565b600062000b5e6000198460080262000b3e565b1980831691505092915050565b600062000b79838362000b4b565b9150826002028217905092915050565b62000b94826200090f565b67ffffffffffffffff81111562000bb05762000baf6200091a565b5b62000bbc825462000978565b62000bc982828562000aee565b600060209050601f83116001811462000c01576000841562000bec578287015190505b62000bf8858262000b6b565b86555062000c68565b601f19841662000c1186620009ad565b60005b8281101562000c3b5784890151825560018201915060208501945060208101905062000c14565b8683101562000c5b578489015162000c57601f89168262000b4b565b8355505b6001600288020188555050505b505050505050565b62000c7b8162000883565b82525050565b600060208201905062000c98600083018462000c70565b92915050565b7f4e487b7100000000000000000000000000000000000000000000000000000000600052601160045260246000fd5b60008160011c9050919050565b6000808291508390505b600185111562000d2c5780860481111562000d045762000d0362000c9e565b5b600185161562000d145780820291505b808102905062000d248562000ccd565b945062000ce4565b94509492505050565b60008262000d47576001905062000e1a565b8162000d57576000905062000e1a565b816001811462000d70576002811462000d7b5762000db1565b600191505062000e1a565b60ff84111562000d905762000d8f62000c9e565b5b8360020a91508482111562000daa5762000da962000c9e565b5b5062000e1a565b5060208310610133831016604e8410600b841016171562000deb5782820a90508381111562000de55762000de462000c9e565b5b62000e1a565b62000dfa848484600162000cda565b9250905081840481111562000e145762000e1362000c9e565b5b81810290505b9392505050565b600060ff82169050919050565b600062000e3b8262000a35565b915062000e488362000e21565b925062000e777fffffffffffffffffffffffffffffffffffffffffffffffffffffffffffffffff848462000d35565b905092915050565b600062000e8c8262000a35565b915062000e998362000a35565b925082820262000ea98162000a35565b9150828204841483151762000ec35762000ec262000c9e565b5b5092915050565b6000819050919050565b62000edf8162000eca565b82525050565b62000ef08162000a35565b82525050565b600060a08201905062000f0d600083018862000ed4565b62000f1c602083018762000ed4565b62000f2b604083018662000ed4565b62000f3a606083018562000ee5565b62000f49608083018462000c70565b9695505050505050565b600082825260208201905092915050565b60005b8381101562000f8457808201518184015260208101905062000f67565b60008484015250505050565b6000601f19601f8301169050919050565b600062000fae826200090f565b62000fba818562000f53565b935062000fcc81856020860162000f64565b62000fd78162000f90565b840191505092915050565b6000602082019050818103600083015262000ffe818462000fa1565b905092915050565b600081519050919050565b6000819050602082019050919050565b60006200102f825162000eca565b80915050919050565b6000620010458262001006565b82620010518462001011565b90506200105e8162001021565b92506020821015620010a1576200109c7fffffffffffffffffffffffffffffffffffffffffffffffffffffffffffffffff83602003600802620009d2565b831692505b5050919050565b6000620010b58262000a35565b9150620010c28362000a35565b9250828201905080821115620010dd57620010dc62000c9e565b5b92915050565b6000606082019050620010fa600083018662000c70565b62001109602083018562000ee5565b62001118604083018462000ee5565b949350505050565b600060208201905062001137600083018462000ee5565b92915050565b60805160a05160c05160e051610100516101205161014051612703620011986000396000611104015260006110c901526000611404015260006113e301526000610cad01526000610d0301526000610d2c01526127036000f3fe608060405234801561001057600080fd5b50600436106101425760003560e01c8063715018a6116100b85780638da5cb5b1161007c5780638da5cb5b1461033357806395d89b4114610351578063a9059cbb1461036f578063d505accf1461039f578063dd62ed3e146103bb578063f2fde38b146103eb57610142565b8063715018a6146102af57806379cc6790146102b95780637ecebe00146102d55780638456cb591461030557806384b0196e1461030f57610142565b80633644e5151161010a5780633644e515146102015780633f4ba83a1461021f57806340c10f191461022957806342966c68146102455780635c975abb1461026157806370a082311461027f57610142565b806306fdde0314610147578063095ea7b31461016557806318160ddd1461019557806323b872dd146101b3578063313ce567146101e3575b600080fd5b61014f610407565b60405161015c9190611baf565b60405180910390f35b61017f600480360381019061017a9190611c6a565b610499565b60405161018c9190611cc5565b60405180910390f35b61019d6104bc565b6040516101aa9190611cef565b60405180910390f35b6101cd60048036038101906101c89190611d0a565b6104c6565b6040516101da9190611cc5565b60405180910390f35b6101eb6104f5565b6040516101f89190611d79565b60405180910390f35b6102096104fe565b6040516102169190611dad565b60405180910390f35b61022761050d565b005b610243600480360381019061023e9190611c6a565b61051f565b005b61025f600480360381019061025a9190611dc8565b61065d565b005b610269610671565b6040516102769190611cc5565b60405180910390f35b61029960048036038101906102949190611df5565b610688565b6040516102a69190611cef565b60405180910390f35b6102b76106d0565b005b6102d360048036038101906102ce9190611c6a565b6106e4565b005b6102ef60048036038101906102ea9190611df5565b610704565b6040516102fc9190611cef565b60405180910390f35b61030d610716565b005b610317610728565b60405161032a9796959493929190611f2a565b60405180910390f35b61033b6107d2565b6040516103489190611fae565b60405180910390f35b6103596107fc565b6040516103669190611baf565b60405180910390f35b61038960048036038101906103849190611c6a565b61088e565b6040516103969190611cc5565b60405180910390f35b6103b960048036038101906103b49190612021565b6108b1565b005b6103d560048036038101906103d091906120c3565b6109f9565b6040516103e29190611cef565b60405180910390f35b61040560048036038101906104009190611df5565b610a80565b005b60606003805461041690612132565b80601f016020809104026020016040519081016040528092919081815260200182805461044290612132565b801561048f5780601f106104645761010080835404028352916020019161048f565b820191906000526020600020905b81548152906001019060200180831161047257829003601f168201915b5050505050905090565b6000806104a4610b06565b90506104b1818585610b0e565b600191505092915050565b6000600254905090565b6000806104d1610b06565b90506104de858285610b20565b6104e9858585610bb5565b60019150509392505050565b60006012905090565b6000610508610ca9565b905090565b610515610d60565b61051d610de7565b565b610527610d60565b600073ffffffffffffffffffffffffffffffffffffffff168273ffffffffffffffffffffffffffffffffffffffff1603610596576040517f08c379a000000000000000000000000000000000000000000000000000000000815260040161058d906121af565b60405180910390fd5b600081116105d9576040517f08c379a00000000000000000000000000000000000000000000000000000000081526004016105d090612241565b60405180910390fd5b6105e16104f5565b600a6105ed91906123c3565b620f42406105fb919061240e565b816106046104bc565b61060e9190612450565b111561064f576040517f08c379a0000000000000000000000000000000000000000000000000000000008152600401610646906124f6565b60405180910390fd5b6106598282610e4a565b5050565b61066e610668610b06565b82610ecc565b50565b6000600560009054906101000a900460ff16905090565b60008060008373ffffffffffffffffffffffffffffffffffffffff1673ffffffffffffffffffffffffffffffffffffffff168152602001908152602001600020549050919050565b6106d8610d60565b6106e26000610f4e565b565b6106f6826106f0610b06565b83610b20565b6107008282610ecc565b5050565b600061070f82611014565b9050919050565b61071e610d60565b61072661105d565b565b60006060806000806000606061073c6110c0565b6107446110fb565b46306000801b600067ffffffffffffffff81111561076557610764612516565b5b6040519080825280602002602001820160405280156107935781602001602082028036833780820191505090505b507f0f00000000000000000000000000000000000000000000000000000000000000959493929190965096509650965096509650965090919293949596565b6000600560019054906101000a900473ffffffffffffffffffffffffffffffffffffffff16905090565b60606004805461080b90612132565b80601f016020809104026020016040519081016040528092919081815260200182805461083790612132565b80156108845780601f1061085957610100808354040283529160200191610884565b820191906000526020600020905b81548152906001019060200180831161086757829003601f168201915b5050505050905090565b600080610899610b06565b90506108a6818585610bb5565b600191505092915050565b834211156108f657836040517f627913020000000000000000000000000000000000000000000000000000000081526004016108ed9190611cef565b60405180910390fd5b60007f6e71edae12b1b97f4d1f60370fef10105fa2faae0126114a169c64845d6126c98888886109258c611136565b8960405160200161093b96959493929190612545565b604051602081830303815290604052805190602001209050600061095e8261118d565b9050600061096e828787876111a7565b90508973ffffffffffffffffffffffffffffffffffffffff168173ffffffffffffffffffffffffffffffffffffffff16146109e257808a6040517f4b800e460000000000000000000000000000000000000000000000000000000081526004016109d99291906125a6565b60405180910390fd5b6109ed8a8a8a610b0e565b50505050505050505050565b6000600160008473ffffffffffffffffffffffffffffffffffffffff1673ffffffffffffffffffffffffffffffffffffffff16815260200190815260200160002060008373ffffffffffffffffffffffffffffffffffffffff1673ffffffffffffffffffffffffffffffffffffffff16815260200190815260200160002054905092915050565b610a88610d60565b600073ffffffffffffffffffffffffffffffffffffffff168173ffffffffffffffffffffffffffffffffffffffff1603610afa5760006040517f1e4fbdf7000000000000000000000000000000000000000000000000000000008152600401610af19190611fae565b60405180910390fd5b610b0381610f4e565b50565b600033905090565b610b1b83838360016111d7565b505050565b6000610b2c84846109f9565b90507fffffffffffffffffffffffffffffffffffffffffffffffffffffffffffffffff811015610baf5781811015610b9f578281836040517ffb8f41b2000000000000000000000000000000000000000000000000000000008152600401610b96939291906125cf565b60405180910390fd5b610bae848484840360006111d7565b5b50505050565b600073ffffffffffffffffffffffffffffffffffffffff168373ffffffffffffffffffffffffffffffffffffffff1603610c275760006040517f96c6fd1e000000000000000000000000000000000000000000000000000000008152600401610c1e9190611fae565b60405180910390fd5b600073ffffffffffffffffffffffffffffffffffffffff168273ffffffffffffffffffffffffffffffffffffffff1603610c995760006040517fec442f05000000000000000000000000000000000000000000000000000000008152600401610c909190611fae565b60405180910390fd5b610ca48383836113ae565b505050565b60007f000000000000000000000000000000000000000000000000000000000000000073ffffffffffffffffffffffffffffffffffffffff163073ffffffffffffffffffffffffffffffffffffffff16148015610d2557507f000000000000000000000000000000000000000000000000000000000000000046145b15610d52577f00000000000000000000000000000000000000000000000000000000000000009050610d5d565b610d5a6113be565b90505b90565b610d68610b06565b73ffffffffffffffffffffffffffffffffffffffff16610d866107d2565b73ffffffffffffffffffffffffffffffffffffffff1614610de557610da9610b06565b6040517f118cdaa7000000000000000000000000000000000000000000000000000000008152600401610ddc9190611fae565b60405180910390fd5b565b610def611454565b6000600560006101000a81548160ff0219169083151502179055507f5db9ee0a495bf2e6ff9c91a7834c1ba4fdd244a5e8aa4e537bd38aeae4b073aa610e33610b06565b604051610e409190611fae565b60405180910390a1565b600073ffffffffffffffffffffffffffffffffffffffff168273ffffffffffffffffffffffffffffffffffffffff1603610ebc5760006040517fec442f05000000000000000000000000000000000000000000000000000000008152600401610eb39190611fae565b60405180910390fd5b610ec8600083836113ae565b5050565b600073ffffffffffffffffffffffffffffffffffffffff168273ffffffffffffffffffffffffffffffffffffffff1603610f3e5760006040517f96c6fd1e000000000000000000000000000000000000000000000000000000008152600401610f359190611fae565b60405180910390fd5b610f4a826000836113ae565b5050565b6000600560019054906101000a900473ffffffffffffffffffffffffffffffffffffffff16905081600560016101000a81548173ffffffffffffffffffffffffffffffffffffffff021916908373ffffffffffffffffffffffffffffffffffffffff1602179055508173ffffffffffffffffffffffffffffffffffffffff168173ffffffffffffffffffffffffffffffffffffffff167f8be0079c531659141344cd1fd0a4f28419497f9722a3daafe3b4186f6b6457e060405160405180910390a35050565b6000600860008373ffffffffffffffffffffffffffffffffffffffff1673ffffffffffffffffffffffffffffffffffffffff168152602001908152602001600020549050919050565b611065611494565b6001600560006101000a81548160ff0219169083151502179055507f62e78cea01bee320cd4e420270b5ea74000d11b0c9f74754ebdbfc544b05a2586110a9610b06565b6040516110b69190611fae565b60405180910390a1565b60606110f660067f00000000000000000000000000000000000000000000000000000000000000006114d590919063ffffffff16565b905090565b606061113160077f00000000000000000000000000000000000000000000000000000000000000006114d590919063ffffffff16565b905090565b6000600860008373ffffffffffffffffffffffffffffffffffffffff1673ffffffffffffffffffffffffffffffffffffffff1681526020019081526020016000206000815480929190600101919050559050919050565b60006111a061119a610ca9565b83611585565b9050919050565b6000806000806111b9888888886115c6565b9250925092506111c982826116ba565b829350505050949350505050565b600073ffffffffffffffffffffffffffffffffffffffff168473ffffffffffffffffffffffffffffffffffffffff16036112495760006040517fe602df050000000000000000000000000000000000000000000000000000000081526004016112409190611fae565b60405180910390fd5b600073ffffffffffffffffffffffffffffffffffffffff168373ffffffffffffffffffffffffffffffffffffffff16036112bb5760006040517f94280d620000000000000000000000000000000000000000000000000000000081526004016112b29190611fae565b60405180910390fd5b81600160008673ffffffffffffffffffffffffffffffffffffffff1673ffffffffffffffffffffffffffffffffffffffff16815260200190815260200160002060008573ffffffffffffffffffffffffffffffffffffffff1673ffffffffffffffffffffffffffffffffffffffff1681526020019081526020016000208190555080156113a8578273ffffffffffffffffffffffffffffffffffffffff168473ffffffffffffffffffffffffffffffffffffffff167f8c5be1e5ebec7d5bd14f71427d1e84f3dd0314c0f7b2291e5b200ac8c7c3b9258460405161139f9190611cef565b60405180910390a35b50505050565b6113b983838361181e565b505050565b60007f8b73c3c69bb8fe3d512ecc4cf759cc79239f7b179b0ffacaa9a75d522b39400f7f00000000000000000000000000000000000000000000000000000000000000007f00000000000000000000000000000000000000000000000000000000000000004630604051602001611439959493929190612606565b60405160208183030381529060405280519060200120905090565b61145c610671565b611492576040517f8dfc202b00000000000000000000000000000000000000000000000000000000815260040160405180910390fd5b565b61149c610671565b156114d3576040517fd93c066500000000000000000000000000000000000000000000000000000000815260040160405180910390fd5b565b606060ff60001b83146114f2576114eb83611836565b905061157f565b8180546114fe90612132565b80601f016020809104026020016040519081016040528092919081815260200182805461152a90612132565b80156115775780601f1061154c57610100808354040283529160200191611577565b820191906000526020600020905b81548152906001019060200180831161155a57829003601f168201915b505050505090505b92915050565b60006040517f190100000000000000000000000000000000000000000000000000000000000081528360028201528260228201526042812091505092915050565b60008060007f7fffffffffffffffffffffffffffffff5d576e7357a4501ddfe92f46681b20a08460001c11156116065760006003859250925092506116b0565b60006001888888886040516000815260200160405260405161162b9493929190612659565b6020604051602081039080840390855afa15801561164d573d6000803e3d6000fd5b505050602060405103519050600073ffffffffffffffffffffffffffffffffffffffff168173ffffffffffffffffffffffffffffffffffffffff16036116a157600060016000801b935093509350506116b0565b8060008060001b935093509350505b9450945094915050565b600060038111156116ce576116cd61269e565b5b8260038111156116e1576116e061269e565b5b031561181a57600160038111156116fb576116fa61269e565b5b82600381111561170e5761170d61269e565b5b03611745576040517ff645eedf00000000000000000000000000000000000000000000000000000000815260040160405180910390fd5b600260038111156117595761175861269e565b5b82600381111561176c5761176b61269e565b5b036117b1578060001c6040517ffce698f70000000000000000000000000000000000000000000000000000000081526004016117a89190611cef565b60405180910390fd5b6003808111156117c4576117c361269e565b5b8260038111156117d7576117d661269e565b5b0361181957806040517fd78bce0c0000000000000000000000000000000000000000000000000000000081526004016118109190611dad565b60405180910390fd5b5b5050565b611826611494565b6118318383836118aa565b505050565b6060600061184383611acf565b90506000602067ffffffffffffffff81111561186257611861612516565b5b6040519080825280601f01601f1916602001820160405280156118945781602001600182028036833780820191505090505b5090508181528360208201528092505050919050565b600073ffffffffffffffffffffffffffffffffffffffff168373ffffffffffffffffffffffffffffffffffffffff16036118fc5780600260008282546118f09190612450565b925050819055506119cf565b60008060008573ffffffffffffffffffffffffffffffffffffffff1673ffffffffffffffffffffffffffffffffffffffff16815260200190815260200160002054905081811015611988578381836040517fe450d38c00000000000000000000000000000000000000000000000000000000815260040161197f939291906125cf565b60405180910390fd5b8181036000808673ffffffffffffffffffffffffffffffffffffffff1673ffffffffffffffffffffffffffffffffffffffff16815260200190815260200160002081905550505b600073ffffffffffffffffffffffffffffffffffffffff168273ffffffffffffffffffffffffffffffffffffffff1603611a185780600260008282540392505081905550611a65565b806000808473ffffffffffffffffffffffffffffffffffffffff1673ffffffffffffffffffffffffffffffffffffffff168152602001908152602001600020600082825401925050819055505b8173ffffffffffffffffffffffffffffffffffffffff168373ffffffffffffffffffffffffffffffffffffffff167fddf252ad1be2c89b69c2b068fc378daa952ba7f163c4a11628f55a4df523b3ef83604051611ac29190611cef565b60405180910390a3505050565b60008060ff8360001c169050601f811115611b16576040517fb3512b0c00000000000000000000000000000000000000000000000000000000815260040160405180910390fd5b80915050919050565b600081519050919050565b600082825260208201905092915050565b60005b83811015611b59578082015181840152602081019050611b3e565b60008484015250505050565b6000601f19601f8301169050919050565b6000611b8182611b1f565b611b8b8185611b2a565b9350611b9b818560208601611b3b565b611ba481611b65565b840191505092915050565b60006020820190508181036000830152611bc98184611b76565b905092915050565b600080fd5b600073ffffffffffffffffffffffffffffffffffffffff82169050919050565b6000611c0182611bd6565b9050919050565b611c1181611bf6565b8114611c1c57600080fd5b50565b600081359050611c2e81611c08565b92915050565b6000819050919050565b611c4781611c34565b8114611c5257600080fd5b50565b600081359050611c6481611c3e565b92915050565b60008060408385031215611c8157611c80611bd1565b5b6000611c8f85828601611c1f565b9250506020611ca085828601611c55565b9150509250929050565b60008115159050919050565b611cbf81611caa565b82525050565b6000602082019050611cda6000830184611cb6565b92915050565b611ce981611c34565b82525050565b6000602082019050611d046000830184611ce0565b92915050565b600080600060608486031215611d2357611d22611bd1565b5b6000611d3186828701611c1f565b9350506020611d4286828701611c1f565b9250506040611d5386828701611c55565b9150509250925092565b600060ff82169050919050565b611d7381611d5d565b82525050565b6000602082019050611d8e6000830184611d6a565b92915050565b6000819050919050565b611da781611d94565b82525050565b6000602082019050611dc26000830184611d9e565b92915050565b600060208284031215611dde57611ddd611bd1565b5b6000611dec84828501611c55565b91505092915050565b600060208284031215611e0b57611e0a611bd1565b5b6000611e1984828501611c1f565b91505092915050565b60007fff0000000000000000000000000000000000000000000000000000000000000082169050919050565b611e5781611e22565b82525050565b611e6681611bf6565b82525050565b600081519050919050565b600082825260208201905092915050565b6000819050602082019050919050565b611ea181611c34565b82525050565b6000611eb38383611e98565b60208301905092915050565b6000602082019050919050565b6000611ed782611e6c565b611ee18185611e77565b9350611eec83611e88565b8060005b83811015611f1d578151611f048882611ea7565b9750611f0f83611ebf565b925050600181019050611ef0565b5085935050505092915050565b600060e082019050611f3f600083018a611e4e565b8181036020830152611f518189611b76565b90508181036040830152611f658188611b76565b9050611f746060830187611ce0565b611f816080830186611e5d565b611f8e60a0830185611d9e565b81810360c0830152611fa08184611ecc565b905098975050505050505050565b6000602082019050611fc36000830184611e5d565b92915050565b611fd281611d5d565b8114611fdd57600080fd5b50565b600081359050611fef81611fc9565b92915050565b611ffe81611d94565b811461200957600080fd5b50565b60008135905061201b81611ff5565b92915050565b600080600080600080600060e0888a0312156120405761203f611bd1565b5b600061204e8a828b01611c1f565b975050602061205f8a828b01611c1f565b96505060406120708a828b01611c55565b95505060606120818a828b01611c55565b94505060806120928a828b01611fe0565b93505060a06120a38a828b0161200c565b92505060c06120b48a828b0161200c565b91505092959891949750929550565b600080604083850312156120da576120d9611bd1565b5b60006120e885828601611c1f565b92505060206120f985828601611c1f565b9150509250929050565b7f4e487b7100000000000000000000000000000000000000000000000000000000600052602260045260246000fd5b6000600282049050600182168061214a57607f821691505b60208210810361215d5761215c612103565b5b50919050565b7f45524332303a206d696e7420746f20746865207a65726f206164647265737300600082015250565b6000612199601f83611b2a565b91506121a482612163565b602082019050919050565b600060208201905081810360008301526121c88161218c565b9050919050565b7f45524332303a206d696e7420616d6f756e74206d75737420626520677265617460008201527f6572207468616e20300000000000000000000000000000000000000000000000602082015250565b600061222b602983611b2a565b9150612236826121cf565b604082019050919050565b6000602082019050818103600083015261225a8161221e565b9050919050565b7f4e487b7100000000000000000000000000000000000000000000000000000000600052601160045260246000fd5b60008160011c9050919050565b6000808291508390505b60018511156122e7578086048111156122c3576122c2612261565b5b60018516156122d25780820291505b80810290506122e085612290565b94506122a7565b94509492505050565b60008261230057600190506123bc565b8161230e57600090506123bc565b8160018114612324576002811461232e5761235d565b60019150506123bc565b60ff8411156123405761233f612261565b5b8360020a91508482111561235757612356612261565b5b506123bc565b5060208310610133831016604e8410600b84101617156123925782820a90508381111561238d5761238c612261565b5b6123bc565b61239f848484600161229d565b925090508184048111156123b6576123b5612261565b5b81810290505b9392505050565b60006123ce82611c34565b91506123d983611d5d565b92506124067fffffffffffffffffffffffffffffffffffffffffffffffffffffffffffffffff84846122f0565b905092915050565b600061241982611c34565b915061242483611c34565b925082820261243281611c34565b9150828204841483151761244957612448612261565b5b5092915050565b600061245b82611c34565b915061246683611c34565b925082820190508082111561247e5761247d612261565b5b92915050565b7f45524332303a206d696e7420616d6f756e74206578636565647320746f74616c60008201527f20737570706c7900000000000000000000000000000000000000000000000000602082015250565b60006124e0602783611b2a565b91506124eb82612484565b604082019050919050565b6000602082019050818103600083015261250f816124d3565b9050919050565b7f4e487b7100000000000000000000000000000000000000000000000000000000600052604160045260246000fd5b600060c08201905061255a6000830189611d9e565b6125676020830188611e5d565b6125746040830187611e5d565b6125816060830186611ce0565b61258e6080830185611ce0565b61259b60a0830184611ce0565b979650505050505050565b60006040820190506125bb6000830185611e5d565b6125c86020830184611e5d565b9392505050565b60006060820190506125e46000830186611e5d565b6125f16020830185611ce0565b6125fe6040830184611ce0565b949350505050565b600060a08201905061261b6000830188611d9e565b6126286020830187611d9e565b6126356040830186611d9e565b6126426060830185611ce0565b61264f6080830184611e5d565b9695505050505050565b600060808201905061266e6000830187611d9e565b61267b6020830186611d6a565b6126886040830185611d9e565b6126956060830184611d9e565b95945050505050565b7f4e487b7100000000000000000000000000000000000000000000000000000000600052602160045260246000fdfea2646970667358221220092d8850c90c3116089178fb7830771cc90f60c04967e0af91e48527122766cd64736f6c63430008140033",
  "linkReferences": {},
  "deployedLinkReferences": {}
}