{
  "_format": "hh-sol-artifact-1",
  "contractName": "InternToken",
  "sourceName": "contracts/InternToken.sol",
  "abi": [
    {
      "inputs": [
        {
          "internalType": "address",
          "name": "recipient",
          "type": "address"
        },
        {
          "internalType": "address",
          "name": "initialOwner",
          "type": "address"
        }
      ],
      "stateMutability": "nonpayable",
      "type": "constructor"
    },
    {
      "inputs": [],
      "name": "ECDSAInvalidSignature",
      "type": "error"
    },
    {
      "inputs": [
        {
          "internalType": "uint256",
          "name": "length",
          "type": "uint256"
        }
      ],
      "name": "ECDSAInvalidSignatureLength",
      "type": "error"
    },
    {
      "inputs": [
        {
          "internalType": "bytes32",
          "name": "s",
          "type": "bytes32"
        }
      ],
      "name": "ECDSAInvalidSignatureS",
      "type": "error"
    },
    {
      "inputs": [
        {
          "internalType": "address",
          "name": "spender",
          "type": "address"
        },
        {
          "internalType": "uint256",
          "name": "allowance",
          "type": "uint256"
        },
        {
          "internalType": "uint256",
          "name": "needed",
          "type": "uint256"
        }
      ],
      "name": "ERC20InsufficientAllowance",
      "type": "error"
    },
    {
      "inputs": [
        {
          "internalType": "address",
          "name": "sender",
          "type": "address"
        },
        {
          "internalType": "uint256",
          "name": "balance",
          "type": "uint256"
        },
        {
          "internalType": "uint256",
          "name": "needed",
          "type": "uint256"
        }
      ],
      "name": "ERC20InsufficientBalance",
      "type": "error"
    },
    {
      "inputs": [
        {
          "internalType": "address",
          "name": "approver",
          "type": "address"
        }
      ],
      "name": "ERC20InvalidApprover",
      "type": "error"
    },
    {
      "inputs": [
        {
          "internalType": "address",
          "name": "receiver",
          "type": "address"
        }
      ],
      "name": "ERC20InvalidReceiver",
      "type": "error"
    },
    {
      "inputs": [
        {
          "internalType": "address",
          "name": "sender",
          "type": "address"
        }
      ],
      "name": "ERC20InvalidSender",
      "type": "error"
    },
    {
      "inputs": [
        {
          "internalType": "address",
          "name": "spender",
          "type": "address"
        }
      ],
      "name": "ERC20InvalidSpender",
      "type": "error"
    },
    {
      "inputs": [
        {
          "internalType": "uint256",
          "name": "deadline",
          "type": "uint256"
        }
      ],
      "name": "ERC2612ExpiredSignature",
      "type": "error"
    },
    {
      "inputs": [
        {
          "internalType": "address",
          "name": "signer",
          "type": "address"
        },
        {
          "internalType": "address",
          "name": "owner",
          "type": "address"
        }
      ],
      "name": "ERC2612InvalidSigner",
      "type": "error"
    },
    {
      "inputs": [],
      "name": "EnforcedPause",
      "type": "error"
    },
    {
      "inputs": [],
      "name": "ExpectedPause",
      "type": "error"
    },
    {
      "inputs": [
        {
          "internalType": "address",
          "name": "account",
          "type": "address"
        },
        {
          "internalType": "uint256",
          "name": "currentNonce",
          "type": "uint256"
        }
      ],
      "name": "InvalidAccountNonce",
      "type": "error"
    },
    {
      "inputs": [],
      "name": "InvalidShortString",
      "type": "error"
    },
    {
      "inputs": [
        {
          "internalType": "address",
          "name": "owner",
          "type": "address"
        }
      ],
      "name": "OwnableInvalidOwner",
      "type": "error"
    },
    {
      "inputs": [
        {
          "internalType": "address",
          "name": "account",
          "type": "address"
        }
      ],
      "name": "OwnableUnauthorizedAccount",
      "type": "error"
    },
    {
      "inputs": [
        {
          "internalType": "string",
          "name": "str",
          "type": "string"
        }
      ],
      "name": "StringTooLong",
      "type": "error"
    },
    {
      "anonymous": false,
      "inputs": [
        {
          "indexed": true,
          "internalType": "address",
          "name": "owner",
          "type": "address"
        },
        {
          "indexed": true,
          "internalType": "address",
          "name": "spender",
          "type": "address"
        },
        {
          "indexed": false,
          "internalType": "uint256",
          "name": "value",
          "type": "uint256"
        }
      ],
      "name": "Approval",
      "type": "event"
    },
    {
      "anonymous": false,
      "inputs": [],
      "name": "EIP712DomainChanged",
      "type": "event"
    },
    {
      "anonymous": false,
      "inputs": [
        {
          "indexed": true,
          "internalType": "address",
          "name": "to",
          "type": "address"
        },
        {
          "indexed": false,
          "internalType": "uint256",
          "name": "amount",
          "type": "uint256"
        }
      ],
      "name": "Mint",
      "type": "event"
    },
    {
      "anonymous": false,
      "inputs": [
        {
          "indexed": true,
          "internalType": "address",
          "name": "previousOwner",
          "type": "address"
        },
        {
          "indexed": true,
          "internalType": "address",
          "name": "newOwner",
          "type": "address"
        }
      ],
      "name": "OwnershipTransferred",
      "type": "event"
    },
    {
      "anonymous": false,
      "inputs": [
        {
          "indexed": false,
          "internalType": "address",
          "name": "account",
          "type": "address"
        }
      ],
      "name": "Paused",
      "type": "event"
    },
    {
      "anonymous": false,
      "inputs": [
        {
          "indexed": true,
          "internalType": "address",
          "name": "from",
          "type": "address"
        },
        {
          "indexed": true,
          "internalType": "address",
          "name": "to",
          "type": "address"
        },
        {
          "indexed": false,
          "internalType": "uint256",
          "name": "value",
          "type": "uint256"
        }
      ],
      "name": "Transfer",
      "type": "event"
    },
    {
      "anonymous": false,
      "inputs": [
        {
          "indexed": false,
          "internalType": "address",
          "name": "account",
          "type": "address"
        }
      ],
      "name": "Unpaused",
      "type": "event"
    },
    {
      "inputs": [],
      "name": "DOMAIN_SEPARATOR",
      "outputs": [
        {
          "internalType": "bytes32",
          "name": "",
          "type": "bytes32"
        }
      ],
      "stateMutability": "view",
      "type": "function"
    },
    {
      "inputs": [],
      "name": "MAX_SUPPLY",
      "outputs": [
        {
          "internalType": "uint256",
          "name": "",
          "type": "uint256"
        }
      ],
      "stateMutability": "view",
      "type": "function"
    },
    {
      "inputs": [
        {
          "internalType": "address",
          "name": "owner",
          "type": "address"
        },
        {
          "internalType": "address",
          "name": "spender",
          "type": "address"
        }
      ],
      "name": "allowance",
      "outputs": [
        {
          "internalType": "uint256",
          "name": "",
          "type": "uint256"
        }
      ],
      "stateMutability": "view",
      "type": "function"
    },
    {
      "inputs": [
        {
          "internalType": "address",
          "name": "spender",
          "type": "address"
        },
        {
          "internalType": "uint256",
          "name": "value",
          "type": "uint256"
        }
      ],
      "name": "approve",
      "outputs": [
        {
          "internalType": "bool",
          "name": "",
          "type": "bool"
        }
      ],
      "stateMutability": "nonpayable",
      "type": "function"
    },
    {
      "inputs": [
        {
          "internalType": "address",
          "name": "account",
          "type": "address"
        }
      ],
      "name": "balanceOf",
      "outputs": [
        {
          "internalType": "uint256",
          "name": "",
          "type": "uint256"
        }
      ],
      "stateMutability": "view",
      "type": "function"
    },
    {
      "inputs": [
        {
          "internalType": "uint256",
          "name": "value",
          "type": "uint256"
        }
      ],
      "name": "burn",
      "outputs": [],
      "stateMutability": "nonpayable",
      "type": "function"
    },
    {
      "inputs": [
        {
          "internalType": "address",
          "name": "account",
          "type": "address"
        },
        {
          "internalType": "uint256",
          "name": "value",
          "type": "uint256"
        }
      ],
      "name": "burnFrom",
      "outputs": [],
      "stateMutability": "nonpayable",
      "type": "function"
    },
    {
      "inputs": [],
      "name": "decimals",
      "outputs": [
        {
          "internalType": "uint8",
          "name": "",
          "type": "uint8"
        }
      ],
      "stateMutability": "view",
      "type": "function"
    },
    {
      "inputs": [],
      "name": "eip712Domain",
      "outputs": [
        {
          "internalType": "bytes1",
          "name": "fields",
          "type": "bytes1"
        },
        {
          "internalType": "string",
          "name": "name",
          "type": "string"
        },
        {
          "internalType": "string",
          "name": "version",
          "type": "string"
        },
        {
          "internalType": "uint256",
          "name": "chainId",
          "type": "uint256"
        },
        {
          "internalType": "address",
          "name": "verifyingContract",
          "type": "address"
        },
        {
          "internalType": "bytes32",
          "name": "salt",
          "type": "bytes32"
        },
        {
          "internalType": "uint256[]",
          "name": "extensions",
          "type": "uint256[]"
        }
      ],
      "stateMutability": "view",
      "type": "function"
    },
    {
      "inputs": [
        {
          "internalType": "address",
          "name": "to",
          "type": "address"
        },
        {
          "internalType": "uint256",
          "name": "amount",
          "type": "uint256"
        }
      ],
      "name": "mint",
      "outputs": [],
      "stateMutability": "nonpayable",
      "type": "function"
    },
    {
      "inputs": [],
      "name": "name",
      "outputs": [
        {
          "internalType": "string",
          "name": "",
          "type": "string"
        }
      ],
      "stateMutability": "view",
      "type": "function"
    },
    {
      "inputs": [
        {
          "internalType": "address",
          "name": "owner",
          "type": "address"
        }
      ],
      "name": "nonces",
      "outputs": [
        {
          "internalType": "uint256",
          "name": "",
          "type": "uint256"
        }
      ],
      "stateMutability": "view",
      "type": "function"
    },
    {
      "inputs": [],
      "name": "owner",
      "outputs": [
        {
          "internalType": "address",
          "name": "",
          "type": "address"
        }
      ],
      "stateMutability": "view",
      "type": "function"
    },
    {
      "inputs": [],
      "name": "pause",
      "outputs": [],
      "stateMutability": "nonpayable",
      "type": "function"
    },
    {
      "inputs": [],
      "name": "paused",
      "outputs": [
        {
          "internalType": "bool",
          "name": "",
          "type": "bool"
        }
      ],
      "stateMutability": "view",
      "type": "function"
    },
    {
      "inputs": [
        {
          "internalType": "address",
          "name": "owner",
          "type": "address"
        },
        {
          "internalType": "address",
          "name": "spender",
          "type": "address"
        },
        {
          "internalType": "uint256",
          "name": "value",
          "type": "uint256"
        },
        {
          "internalType": "uint256",
          "name": "deadline",
          "type": "uint256"
        },
        {
          "internalType": "uint8",
          "name": "v",
          "type": "uint8"
        },
        {
          "internalType": "bytes32",
          "name": "r",
          "type": "bytes32"
        },
        {
          "internalType": "bytes32",
          "name": "s",
          "type": "bytes32"
        }
      ],
      "name": "permit",
      "outputs": [],
      "stateMutability": "nonpayable",
      "type": "function"
    },
    {
      "inputs": [],
      "name": "renounceOwnership",
      "outputs": [],
      "stateMutability": "nonpayable",
      "type": "function"
    },
    {
      "inputs": [],
      "name": "symbol",
      "outputs": [
        {
          "internalType": "string",
          "name": "",
          "type": "string"
        }
      ],
      "stateMutability": "view",
      "type": "function"
    },
    {
      "inputs": [],
      "name": "totalSupply",
      "outputs": [
        {
          "internalType": "uint256",
          "name": "",
          "type": "uint256"
        }
      ],
      "stateMutability": "view",
      "type": "function"
    },
    {
      "inputs": [
        {
          "internalType": "address",
          "name": "to",
          "type": "address"
        },
        {
          "internalType": "uint256",
          "name": "value",
          "type": "uint256"
        }
      ],
      "name": "transfer",
      "outputs": [
        {
          "internalType": "bool",
          "name": "",
          "type": "bool"
        }
      ],
      "stateMutability": "nonpayable",
      "type": "function"
    },
    {
      "inputs": [
        {
          "internalType": "address",
          "name": "from",
          "type": "address"
        },
        {
          "internalType": "address",
          "name": "to",
          "type": "address"
        },
        {
          "internalType": "uint256",
          "name": "value",
          "type": "uint256"
        }
      ],
      "name": "transferFrom",
      "outputs": [
        {
          "internalType": "bool",
          "name": "",
          "type": "bool"
        }
      ],
      "stateMutability": "nonpayable",
      "type": "function"
    },
    {
      "inputs": [
        {
          "internalType": "address",
          "name": "newOwner",
          "type": "address"
        }
      ],
      "name": "transferOwnership",
      "outputs": [],
      "stateMutability": "nonpayable",
      "type": "function"
    },
    {
      "inputs": [],
      "name": "unpause",
      "outputs": [],
      "stateMutability": "nonpayable",
      "type": "function"
    }
  ],
  "bytecode": "0x6101606040523480156200001257600080fd5b50604051620036f7380380620036f7833981810160405281019062000038919062000869565b6040518060400160405280600b81526020017f496e7465726e546f6b656e000000000000000000000000000000000000000000815250806040518060400160405280600181526020017f3100000000000000000000000000000000000000000000000000000000000000815250836040518060400160405280600b81526020017f496e7465726e546f6b656e0000000000000000000000000000000000000000008152506040518060400160405280600381526020017f494e540000000000000000000000000000000000000000000000000000000000815250816003908162000123919062000b2a565b50806004908162000135919062000b2a565b5050506000600560006101000a81548160ff021916908315150217905550600073ffffffffffffffffffffffffffffffffffffffff168173ffffffffffffffffffffffffffffffffffffffff1603620001c85760006040517f1e4fbdf7000000000000000000000000000000000000000000000000000000008152600401620001bf919062000c22565b60405180910390fd5b620001d981620002af60201b60201c565b50620001f06006836200037560201b90919060201c565b61012081815250506200020e6007826200037560201b90919060201c565b6101408181525050818051906020012060e08181525050808051906020012061010081815250504660a081815250506200024d620003cd60201b60201c565b608081815250503073ffffffffffffffffffffffffffffffffffffffff1660c08173ffffffffffffffffffffffffffffffffffffffff1681525050505050620002a7826969e10de76676d08000006200042a60201b60201c565b505062000ee1565b6000600560019054906101000a900473ffffffffffffffffffffffffffffffffffffffff16905081600560016101000a81548173ffffffffffffffffffffffffffffffffffffffff021916908373ffffffffffffffffffffffffffffffffffffffff1602179055508173ffffffffffffffffffffffffffffffffffffffff168173ffffffffffffffffffffffffffffffffffffffff167f8be0079c531659141344cd1fd0a4f28419497f9722a3daafe3b4186f6b6457e060405160405180910390a35050565b60006020835110156200039b576200039383620004b760201b60201c565b9050620003c7565b82620003ad836200052460201b60201c565b6000019081620003be919062000b2a565b5060ff60001b90505b92915050565b60007f8b73c3c69bb8fe3d512ecc4cf759cc79239f7b179b0ffacaa9a75d522b39400f60e0516101005146306040516020016200040f95949392919062000c6b565b60405160208183030381529060405280519060200120905090565b600073ffffffffffffffffffffffffffffffffffffffff168273ffffffffffffffffffffffffffffffffffffffff16036200049f5760006040517fec442f0500000000000000000000000000000000000000000000000000000000815260040162000496919062000c22565b60405180910390fd5b620004b3600083836200052e60201b60201c565b5050565b600080829050601f815111156200050757826040517f305a27a9000000000000000000000000000000000000000000000000000000008152600401620004fe919062000d57565b60405180910390fd5b805181620005159062000dad565b60001c1760001b915050919050565b6000819050919050565b620005418383836200054660201b60201c565b505050565b620005566200056e60201b60201c565b62000569838383620005b860201b60201c565b505050565b6200057e620007e860201b60201c565b15620005b6576040517fd93c066500000000000000000000000000000000000000000000000000000000815260040160405180910390fd5b565b600073ffffffffffffffffffffffffffffffffffffffff168373ffffffffffffffffffffffffffffffffffffffff16036200060e57806002600082825462000601919062000e4c565b92505081905550620006e4565b60008060008573ffffffffffffffffffffffffffffffffffffffff1673ffffffffffffffffffffffffffffffffffffffff168152602001908152602001600020549050818110156200069d578381836040517fe450d38c000000000000000000000000000000000000000000000000000000008152600401620006949392919062000e87565b60405180910390fd5b8181036000808673ffffffffffffffffffffffffffffffffffffffff1673ffffffffffffffffffffffffffffffffffffffff16815260200190815260200160002081905550505b600073ffffffffffffffffffffffffffffffffffffffff168273ffffffffffffffffffffffffffffffffffffffff16036200072f57806002600082825403925050819055506200077c565b806000808473ffffffffffffffffffffffffffffffffffffffff1673ffffffffffffffffffffffffffffffffffffffff168152602001908152602001600020600082825401925050819055505b8173ffffffffffffffffffffffffffffffffffffffff168373ffffffffffffffffffffffffffffffffffffffff167fddf252ad1be2c89b69c2b068fc378daa952ba7f163c4a11628f55a4df523b3ef83604051620007db919062000ec4565b60405180910390a3505050565b6000600560009054906101000a900460ff16905090565b600080fd5b600073ffffffffffffffffffffffffffffffffffffffff82169050919050565b6000620008318262000804565b9050919050565b620008438162000824565b81146200084f57600080fd5b50565b600081519050620008638162000838565b92915050565b60008060408385031215620008835762000882620007ff565b5b6000620008938582860162000852565b9250506020620008a68582860162000852565b9150509250929050565b600081519050919050565b7f4e487b7100000000000000000000000000000000000000000000000000000000600052604160045260246000fd5b7f4e487b7100000000000000000000000000000000000000000000000000000000600052602260045260246000fd5b600060028204905060018216806200093257607f821691505b602082108103620009485762000947620008ea565b5b50919050565b60008190508160005260206000209050919050565b60006020601f8301049050919050565b600082821b905092915050565b600060088302620009b27fffffffffffffffffffffffffffffffffffffffffffffffffffffffffffffffff8262000973565b620009be868362000973565b95508019841693508086168417925050509392505050565b6000819050919050565b6000819050919050565b600062000a0b62000a05620009ff84620009d6565b620009e0565b620009d6565b9050919050565b6000819050919050565b62000a2783620009ea565b62000a3f62000a368262000a12565b84845462000980565b825550505050565b600090565b62000a5662000a47565b62000a6381848462000a1c565b505050565b5b8181101562000a8b5762000a7f60008262000a4c565b60018101905062000a69565b5050565b601f82111562000ada5762000aa4816200094e565b62000aaf8462000963565b8101602085101562000abf578190505b62000ad762000ace8562000963565b83018262000a68565b50505b505050565b600082821c905092915050565b600062000aff6000198460080262000adf565b1980831691505092915050565b600062000b1a838362000aec565b9150826002028217905092915050565b62000b3582620008b0565b67ffffffffffffffff81111562000b515762000b50620008bb565b5b62000b5d825462000919565b62000b6a82828562000a8f565b600060209050601f83116001811462000ba2576000841562000b8d578287015190505b62000b99858262000b0c565b86555062000c09565b601f19841662000bb2866200094e565b60005b8281101562000bdc5784890151825560018201915060208501945060208101905062000bb5565b8683101562000bfc578489015162000bf8601f89168262000aec565b8355505b6001600288020188555050505b505050505050565b62000c1c8162000824565b82525050565b600060208201905062000c39600083018462000c11565b92915050565b6000819050919050565b62000c548162000c3f565b82525050565b62000c6581620009d6565b82525050565b600060a08201905062000c82600083018862000c49565b62000c91602083018762000c49565b62000ca0604083018662000c49565b62000caf606083018562000c5a565b62000cbe608083018462000c11565b9695505050505050565b600082825260208201905092915050565b60005b8381101562000cf957808201518184015260208101905062000cdc565b60008484015250505050565b6000601f19601f8301169050919050565b600062000d2382620008b0565b62000d2f818562000cc8565b935062000d4181856020860162000cd9565b62000d4c8162000d05565b840191505092915050565b6000602082019050818103600083015262000d73818462000d16565b905092915050565b600081519050919050565b6000819050602082019050919050565b600062000da4825162000c3f565b80915050919050565b600062000dba8262000d7b565b8262000dc68462000d86565b905062000dd38162000d96565b9250602082101562000e165762000e117fffffffffffffffffffffffffffffffffffffffffffffffffffffffffffffffff8360200360080262000973565b831692505b5050919050565b7f4e487b7100000000000000000000000000000000000000000000000000000000600052601160045260246000fd5b600062000e5982620009d6565b915062000e6683620009d6565b925082820190508082111562000e815762000e8062000e1d565b5b92915050565b600060608201905062000e9e600083018662000c11565b62000ead602083018562000c5a565b62000ebc604083018462000c5a565b949350505050565b600060208201905062000edb600083018462000c5a565b92915050565b60805160a05160c05160e0516101005161012051610140516127bb62000f3c60003960006111960152600061115b015260006114960152600061147501526000610d3f01526000610d9501526000610dbe01526127bb6000f3fe608060405234801561001057600080fd5b506004361061014d5760003560e01c806370a08231116100c35780638da5cb5b1161007c5780638da5cb5b1461035c57806395d89b411461037a578063a9059cbb14610398578063d505accf146103c8578063dd62ed3e146103e4578063f2fde38b146104145761014d565b806370a08231146102a8578063715018a6146102d857806379cc6790146102e25780637ecebe00146102fe5780638456cb591461032e57806384b0196e146103385761014d565b806332cb6b0c1161011557806332cb6b0c1461020c5780633644e5151461022a5780633f4ba83a1461024857806340c10f191461025257806342966c681461026e5780635c975abb1461028a5761014d565b806306fdde0314610152578063095ea7b31461017057806318160ddd146101a057806323b872dd146101be578063313ce567146101ee575b600080fd5b61015a610430565b6040516101679190611c41565b60405180910390f35b61018a60048036038101906101859190611cfc565b6104c2565b6040516101979190611d57565b60405180910390f35b6101a86104e5565b6040516101b59190611d81565b60405180910390f35b6101d860048036038101906101d39190611d9c565b6104ef565b6040516101e59190611d57565b60405180910390f35b6101f661051e565b6040516102039190611e0b565b60405180910390f35b610214610527565b6040516102219190611d81565b60405180910390f35b610232610535565b60405161023f9190611e3f565b60405180910390f35b610250610544565b005b61026c60048036038101906102679190611cfc565b610556565b005b61028860048036038101906102839190611e5a565b6106ef565b005b610292610703565b60405161029f9190611d57565b60405180910390f35b6102c260048036038101906102bd9190611e87565b61071a565b6040516102cf9190611d81565b60405180910390f35b6102e0610762565b005b6102fc60048036038101906102f79190611cfc565b610776565b005b61031860048036038101906103139190611e87565b610796565b6040516103259190611d81565b60405180910390f35b6103366107a8565b005b6103406107ba565b6040516103539796959493929190611fbc565b60405180910390f35b610364610864565b6040516103719190612040565b60405180910390f35b61038261088e565b60405161038f9190611c41565b60405180910390f35b6103b260048036038101906103ad9190611cfc565b610920565b6040516103bf9190611d57565b60405180910390f35b6103e260048036038101906103dd91906120b3565b610943565b005b6103fe60048036038101906103f99190612155565b610a8b565b60405161040b9190611d81565b60405180910390f35b61042e60048036038101906104299190611e87565b610b12565b005b60606003805461043f906121c4565b80601f016020809104026020016040519081016040528092919081815260200182805461046b906121c4565b80156104b85780601f1061048d576101008083540402835291602001916104b8565b820191906000526020600020905b81548152906001019060200180831161049b57829003601f168201915b5050505050905090565b6000806104cd610b98565b90506104da818585610ba0565b600191505092915050565b6000600254905090565b6000806104fa610b98565b9050610507858285610bb2565b610512858585610c47565b60019150509392505050565b60006012905090565b69d3c21bcecceda100000081565b600061053f610d3b565b905090565b61054c610df2565b610554610e79565b565b61055e610df2565b600073ffffffffffffffffffffffffffffffffffffffff168273ffffffffffffffffffffffffffffffffffffffff16036105cd576040517f08c379a00000000000000000000000000000000000000000000000000000000081526004016105c490612267565b60405180910390fd5b60008111610610576040517f08c379a0000000000000000000000000000000000000000000000000000000008152600401610607906122f9565b60405180910390fd5b600061061a61051e565b600a610626919061247b565b8261063191906124c6565b905069d3c21bcecceda1000000816106476104e5565b6106519190612508565b1115610692576040517f08c379a0000000000000000000000000000000000000000000000000000000008152600401610689906125ae565b60405180910390fd5b61069c8382610edc565b8273ffffffffffffffffffffffffffffffffffffffff167f0f6798a560793a54c3bcfe86a93cde1e73087d944c0ea20544137d4121396885826040516106e29190611d81565b60405180910390a2505050565b6107006106fa610b98565b82610f5e565b50565b6000600560009054906101000a900460ff16905090565b60008060008373ffffffffffffffffffffffffffffffffffffffff1673ffffffffffffffffffffffffffffffffffffffff168152602001908152602001600020549050919050565b61076a610df2565b6107746000610fe0565b565b61078882610782610b98565b83610bb2565b6107928282610f5e565b5050565b60006107a1826110a6565b9050919050565b6107b0610df2565b6107b86110ef565b565b6000606080600080600060606107ce611152565b6107d661118d565b46306000801b600067ffffffffffffffff8111156107f7576107f66125ce565b5b6040519080825280602002602001820160405280156108255781602001602082028036833780820191505090505b507f0f00000000000000000000000000000000000000000000000000000000000000959493929190965096509650965096509650965090919293949596565b6000600560019054906101000a900473ffffffffffffffffffffffffffffffffffffffff16905090565b60606004805461089d906121c4565b80601f01602080910402602001604051908101604052809291908181526020018280546108c9906121c4565b80156109165780601f106108eb57610100808354040283529160200191610916565b820191906000526020600020905b8154815290600101906020018083116108f957829003601f168201915b5050505050905090565b60008061092b610b98565b9050610938818585610c47565b600191505092915050565b8342111561098857836040517f6279130200000000000000000000000000000000000000000000000000000000815260040161097f9190611d81565b60405180910390fd5b60007f6e71edae12b1b97f4d1f60370fef10105fa2faae0126114a169c64845d6126c98888886109b78c6111c8565b896040516020016109cd969594939291906125fd565b60405160208183030381529060405280519060200120905060006109f08261121f565b90506000610a0082878787611239565b90508973ffffffffffffffffffffffffffffffffffffffff168173ffffffffffffffffffffffffffffffffffffffff1614610a7457808a6040517f4b800e46000000000000000000000000000000000000000000000000000000008152600401610a6b92919061265e565b60405180910390fd5b610a7f8a8a8a610ba0565b50505050505050505050565b6000600160008473ffffffffffffffffffffffffffffffffffffffff1673ffffffffffffffffffffffffffffffffffffffff16815260200190815260200160002060008373ffffffffffffffffffffffffffffffffffffffff1673ffffffffffffffffffffffffffffffffffffffff16815260200190815260200160002054905092915050565b610b1a610df2565b600073ffffffffffffffffffffffffffffffffffffffff168173ffffffffffffffffffffffffffffffffffffffff1603610b8c5760006040517f1e4fbdf7000000000000000000000000000000000000000000000000000000008152600401610b839190612040565b60405180910390fd5b610b9581610fe0565b50565b600033905090565b610bad8383836001611269565b505050565b6000610bbe8484610a8b565b90507fffffffffffffffffffffffffffffffffffffffffffffffffffffffffffffffff811015610c415781811015610c31578281836040517ffb8f41b2000000000000000000000000000000000000000000000000000000008152600401610c2893929190612687565b60405180910390fd5b610c4084848484036000611269565b5b50505050565b600073ffffffffffffffffffffffffffffffffffffffff168373ffffffffffffffffffffffffffffffffffffffff1603610cb95760006040517f96c6fd1e000000000000000000000000000000000000000000000000000000008152600401610cb09190612040565b60405180910390fd5b600073ffffffffffffffffffffffffffffffffffffffff168273ffffffffffffffffffffffffffffffffffffffff1603610d2b5760006040517fec442f05000000000000000000000000000000000000000000000000000000008152600401610d229190612040565b60405180910390fd5b610d36838383611440565b505050565b60007f000000000000000000000000000000000000000000000000000000000000000073ffffffffffffffffffffffffffffffffffffffff163073ffffffffffffffffffffffffffffffffffffffff16148015610db757507f000000000000000000000000000000000000000000000000000000000000000046145b15610de4577f00000000000000000000000000000000000000000000000000000000000000009050610def565b610dec611450565b90505b90565b610dfa610b98565b73ffffffffffffffffffffffffffffffffffffffff16610e18610864565b73ffffffffffffffffffffffffffffffffffffffff1614610e7757610e3b610b98565b6040517f118cdaa7000000000000000000000000000000000000000000000000000000008152600401610e6e9190612040565b60405180910390fd5b565b610e816114e6565b6000600560006101000a81548160ff0219169083151502179055507f5db9ee0a495bf2e6ff9c91a7834c1ba4fdd244a5e8aa4e537bd38aeae4b073aa610ec5610b98565b604051610ed29190612040565b60405180910390a1565b600073ffffffffffffffffffffffffffffffffffffffff168273ffffffffffffffffffffffffffffffffffffffff1603610f4e5760006040517fec442f05000000000000000000000000000000000000000000000000000000008152600401610f459190612040565b60405180910390fd5b610f5a60008383611440565b5050565b600073ffffffffffffffffffffffffffffffffffffffff168273ffffffffffffffffffffffffffffffffffffffff1603610fd05760006040517f96c6fd1e000000000000000000000000000000000000000000000000000000008152600401610fc79190612040565b60405180910390fd5b610fdc82600083611440565b5050565b6000600560019054906101000a900473ffffffffffffffffffffffffffffffffffffffff16905081600560016101000a81548173ffffffffffffffffffffffffffffffffffffffff021916908373ffffffffffffffffffffffffffffffffffffffff1602179055508173ffffffffffffffffffffffffffffffffffffffff168173ffffffffffffffffffffffffffffffffffffffff167f8be0079c531659141344cd1fd0a4f28419497f9722a3daafe3b4186f6b6457e060405160405180910390a35050565b6000600860008373ffffffffffffffffffffffffffffffffffffffff1673ffffffffffffffffffffffffffffffffffffffff168152602001908152602001600020549050919050565b6110f7611526565b6001600560006101000a81548160ff0219169083151502179055507f62e78cea01bee320cd4e420270b5ea74000d11b0c9f74754ebdbfc544b05a25861113b610b98565b6040516111489190612040565b60405180910390a1565b606061118860067f000000000000000000000000000000000000000000000000000000000000000061156790919063ffffffff16565b905090565b60606111c360077f000000000000000000000000000000000000000000000000000000000000000061156790919063ffffffff16565b905090565b6000600860008373ffffffffffffffffffffffffffffffffffffffff1673ffffffffffffffffffffffffffffffffffffffff1681526020019081526020016000206000815480929190600101919050559050919050565b600061123261122c610d3b565b83611617565b9050919050565b60008060008061124b88888888611658565b92509250925061125b828261174c565b829350505050949350505050565b600073ffffffffffffffffffffffffffffffffffffffff168473ffffffffffffffffffffffffffffffffffffffff16036112db5760006040517fe602df050000000000000000000000000000000000000000000000000000000081526004016112d29190612040565b60405180910390fd5b600073ffffffffffffffffffffffffffffffffffffffff168373ffffffffffffffffffffffffffffffffffffffff160361134d5760006040517f94280d620000000000000000000000000000000000000000000000000000000081526004016113449190612040565b60405180910390fd5b81600160008673ffffffffffffffffffffffffffffffffffffffff1673ffffffffffffffffffffffffffffffffffffffff16815260200190815260200160002060008573ffffffffffffffffffffffffffffffffffffffff1673ffffffffffffffffffffffffffffffffffffffff16815260200190815260200160002081905550801561143a578273ffffffffffffffffffffffffffffffffffffffff168473ffffffffffffffffffffffffffffffffffffffff167f8c5be1e5ebec7d5bd14f71427d1e84f3dd0314c0f7b2291e5b200ac8c7c3b925846040516114319190611d81565b60405180910390a35b50505050565b61144b8383836118b0565b505050565b60007f8b73c3c69bb8fe3d512ecc4cf759cc79239f7b179b0ffacaa9a75d522b39400f7f00000000000000000000000000000000000000000000000000000000000000007f000000000000000000000000000000000000000000000000000000000000000046306040516020016114cb9594939291906126be565b60405160208183030381529060405280519060200120905090565b6114ee610703565b611524576040517f8dfc202b00000000000000000000000000000000000000000000000000000000815260040160405180910390fd5b565b61152e610703565b15611565576040517fd93c066500000000000000000000000000000000000000000000000000000000815260040160405180910390fd5b565b606060ff60001b83146115845761157d836118c8565b9050611611565b818054611590906121c4565b80601f01602080910402602001604051908101604052809291908181526020018280546115bc906121c4565b80156116095780601f106115de57610100808354040283529160200191611609565b820191906000526020600020905b8154815290600101906020018083116115ec57829003601f168201915b505050505090505b92915050565b60006040517f190100000000000000000000000000000000000000000000000000000000000081528360028201528260228201526042812091505092915050565b60008060007f7fffffffffffffffffffffffffffffff5d576e7357a4501ddfe92f46681b20a08460001c1115611698576000600385925092509250611742565b6000600188888888604051600081526020016040526040516116bd9493929190612711565b6020604051602081039080840390855afa1580156116df573d6000803e3d6000fd5b505050602060405103519050600073ffffffffffffffffffffffffffffffffffffffff168173ffffffffffffffffffffffffffffffffffffffff160361173357600060016000801b93509350935050611742565b8060008060001b935093509350505b9450945094915050565b600060038111156117605761175f612756565b5b82600381111561177357611772612756565b5b03156118ac576001600381111561178d5761178c612756565b5b8260038111156117a05761179f612756565b5b036117d7576040517ff645eedf00000000000000000000000000000000000000000000000000000000815260040160405180910390fd5b600260038111156117eb576117ea612756565b5b8260038111156117fe576117fd612756565b5b03611843578060001c6040517ffce698f700000000000000000000000000000000000000000000000000000000815260040161183a9190611d81565b60405180910390fd5b60038081111561185657611855612756565b5b82600381111561186957611868612756565b5b036118ab57806040517fd78bce0c0000000000000000000000000000000000000000000000000000000081526004016118a29190611e3f565b60405180910390fd5b5b5050565b6118b8611526565b6118c383838361193c565b505050565b606060006118d583611b61565b90506000602067ffffffffffffffff8111156118f4576118f36125ce565b5b6040519080825280601f01601f1916602001820160405280156119265781602001600182028036833780820191505090505b5090508181528360208201528092505050919050565b600073ffffffffffffffffffffffffffffffffffffffff168373ffffffffffffffffffffffffffffffffffffffff160361198e5780600260008282546119829190612508565b92505081905550611a61565b60008060008573ffffffffffffffffffffffffffffffffffffffff1673ffffffffffffffffffffffffffffffffffffffff16815260200190815260200160002054905081811015611a1a578381836040517fe450d38c000000000000000000000000000000000000000000000000000000008152600401611a1193929190612687565b60405180910390fd5b8181036000808673ffffffffffffffffffffffffffffffffffffffff1673ffffffffffffffffffffffffffffffffffffffff16815260200190815260200160002081905550505b600073ffffffffffffffffffffffffffffffffffffffff168273ffffffffffffffffffffffffffffffffffffffff1603611aaa5780600260008282540392505081905550611af7565b806000808473ffffffffffffffffffffffffffffffffffffffff1673ffffffffffffffffffffffffffffffffffffffff168152602001908152602001600020600082825401925050819055505b8173ffffffffffffffffffffffffffffffffffffffff168373ffffffffffffffffffffffffffffffffffffffff167fddf252ad1be2c89b69c2b068fc378daa952ba7f163c4a11628f55a4df523b3ef83604051611b549190611d81565b60405180910390a3505050565b60008060ff8360001c169050601f811115611ba8576040517fb3512b0c00000000000000000000000000000000000000000000000000000000815260040160405180910390fd5b80915050919050565b600081519050919050565b600082825260208201905092915050565b60005b83811015611beb578082015181840152602081019050611bd0565b60008484015250505050565b6000601f19601f8301169050919050565b6000611c1382611bb1565b611c1d8185611bbc565b9350611c2d818560208601611bcd565b611c3681611bf7565b840191505092915050565b60006020820190508181036000830152611c5b8184611c08565b905092915050565b600080fd5b600073ffffffffffffffffffffffffffffffffffffffff82169050919050565b6000611c9382611c68565b9050919050565b611ca381611c88565b8114611cae57600080fd5b50565b600081359050611cc081611c9a565b92915050565b6000819050919050565b611cd981611cc6565b8114611ce457600080fd5b50565b600081359050611cf681611cd0565b92915050565b60008060408385031215611d1357611d12611c63565b5b6000611d2185828601611cb1565b9250506020611d3285828601611ce7565b9150509250929050565b60008115159050919050565b611d5181611d3c565b82525050565b6000602082019050611d6c6000830184611d48565b92915050565b611d7b81611cc6565b82525050565b6000602082019050611d966000830184611d72565b92915050565b600080600060608486031215611db557611db4611c63565b5b6000611dc386828701611cb1565b9350506020611dd486828701611cb1565b9250506040611de586828701611ce7565b9150509250925092565b600060ff82169050919050565b611e0581611def565b82525050565b6000602082019050611e206000830184611dfc565b92915050565b6000819050919050565b611e3981611e26565b82525050565b6000602082019050611e546000830184611e30565b92915050565b600060208284031215611e7057611e6f611c63565b5b6000611e7e84828501611ce7565b91505092915050565b600060208284031215611e9d57611e9c611c63565b5b6000611eab84828501611cb1565b91505092915050565b60007fff0000000000000000000000000000000000000000000000000000000000000082169050919050565b611ee981611eb4565b82525050565b611ef881611c88565b82525050565b600081519050919050565b600082825260208201905092915050565b6000819050602082019050919050565b611f3381611cc6565b82525050565b6000611f458383611f2a565b60208301905092915050565b6000602082019050919050565b6000611f6982611efe565b611f738185611f09565b9350611f7e83611f1a565b8060005b83811015611faf578151611f968882611f39565b9750611fa183611f51565b925050600181019050611f82565b5085935050505092915050565b600060e082019050611fd1600083018a611ee0565b8181036020830152611fe38189611c08565b90508181036040830152611ff78188611c08565b90506120066060830187611d72565b6120136080830186611eef565b61202060a0830185611e30565b81810360c08301526120328184611f5e565b905098975050505050505050565b60006020820190506120556000830184611eef565b92915050565b61206481611def565b811461206f57600080fd5b50565b6000813590506120818161205b565b92915050565b61209081611e26565b811461209b57600080fd5b50565b6000813590506120ad81612087565b92915050565b600080600080600080600060e0888a0312156120d2576120d1611c63565b5b60006120e08a828b01611cb1565b97505060206120f18a828b01611cb1565b96505060406121028a828b01611ce7565b95505060606121138a828b01611ce7565b94505060806121248a828b01612072565b93505060a06121358a828b0161209e565b92505060c06121468a828b0161209e565b91505092959891949750929550565b6000806040838503121561216c5761216b611c63565b5b600061217a85828601611cb1565b925050602061218b85828601611cb1565b9150509250929050565b7f4e487b7100000000000000000000000000000000000000000000000000000000600052602260045260246000fd5b600060028204905060018216806121dc57607f821691505b6020821081036121ef576121ee612195565b5b50919050565b7f496e7465726e546f6b656e3a206d696e7420746f20746865207a65726f20616460008201527f6472657373000000000000000000000000000000000000000000000000000000602082015250565b6000612251602583611bbc565b915061225c826121f5565b604082019050919050565b6000602082019050818103600083015261228081612244565b9050919050565b7f496e7465726e546f6b656e3a206d696e7420616d6f756e74206d75737420626560008201527f2067726561746572207468616e20300000000000000000000000000000000000602082015250565b60006122e3602f83611bbc565b91506122ee82612287565b604082019050919050565b60006020820190508181036000830152612312816122d6565b9050919050565b7f4e487b7100000000000000000000000000000000000000000000000000000000600052601160045260246000fd5b60008160011c9050919050565b6000808291508390505b600185111561239f5780860481111561237b5761237a612319565b5b600185161561238a5780820291505b808102905061239885612348565b945061235f565b94509492505050565b6000826123b85760019050612474565b816123c65760009050612474565b81600181146123dc57600281146123e657612415565b6001915050612474565b60ff8411156123f8576123f7612319565b5b8360020a91508482111561240f5761240e612319565b5b50612474565b5060208310610133831016604e8410600b841016171561244a5782820a90508381111561244557612444612319565b5b612474565b6124578484846001612355565b9250905081840481111561246e5761246d612319565b5b81810290505b9392505050565b600061248682611cc6565b915061249183611def565b92506124be7fffffffffffffffffffffffffffffffffffffffffffffffffffffffffffffffff84846123a8565b905092915050565b60006124d182611cc6565b91506124dc83611cc6565b92508282026124ea81611cc6565b9150828204841483151761250157612500612319565b5b5092915050565b600061251382611cc6565b915061251e83611cc6565b925082820190508082111561253657612535612319565b5b92915050565b7f496e7465726e546f6b656e3a206d696e7420616d6f756e74206578636565647360008201527f20746f74616c20737570706c7900000000000000000000000000000000000000602082015250565b6000612598602d83611bbc565b91506125a38261253c565b604082019050919050565b600060208201905081810360008301526125c78161258b565b9050919050565b7f4e487b7100000000000000000000000000000000000000000000000000000000600052604160045260246000fd5b600060c0820190506126126000830189611e30565b61261f6020830188611eef565b61262c6040830187611eef565b6126396060830186611d72565b6126466080830185611d72565b61265360a0830184611d72565b979650505050505050565b60006040820190506126736000830185611eef565b6126806020830184611eef565b9392505050565b600060608201905061269c6000830186611eef565b6126a96020830185611d72565b6126b66040830184611d72565b949350505050565b600060a0820190506126d36000830188611e30565b6126e06020830187611e30565b6126ed6040830186611e30565b6126fa6060830185611d72565b6127076080830184611eef565b9695505050505050565b60006080820190506127266000830187611e30565b6127336020830186611dfc565b6127406040830185611e30565b61274d6060830184611e30565b95945050505050565b7f4e487b7100000000000000000000000000000000000000000000000000000000600052602160045260246000fdfea2646970667358221220ecaf4733d5826b051d45ecb2fc168aa6d2b84c7c65d77b73c97c0d29a6f2175364736f6c63430008140033",
  "linkReferences": {},
  "deployedLinkReferences": {}
}