{
  "_format": "hh-sol-artifact-1",
  "contractName": "InternToken",
  "sourceName": "contracts/InternToken.sol",
  "abi": [
    {
      "inputs": [
        {
          "internalType": "address",
          "name": "recipient",
          "type": "address"
        },
        {
          "internalType": "address",
          "name": "initialOwner",
          "type": "address"
        }
      ],
      "stateMutability": "nonpayable",
      "type": "constructor"
    },
    {
      "inputs": [],
      "name": "ECDSAInvalidSignature",
      "type": "error"
    },
    {
      "inputs": [
        {
          "internalType": "uint256",
          "name": "length",
          "type": "uint256"
        }
      ],
      "name": "ECDSAInvalidSignatureLength",
      "type": "error"
    },
    {
      "inputs": [
        {
          "internalType": "bytes32",
          "name": "s",
          "type": "bytes32"
        }
      ],
      "name": "ECDSAInvalidSignatureS",
      "type": "error"
    },
    {
      "inputs": [
        {
          "internalType": "address",
          "name": "spender",
          "type": "address"
        },
        {
          "internalType": "uint256",
          "name": "allowance",
          "type": "uint256"
        },
        {
          "internalType": "uint256",
          "name": "needed",
          "type": "uint256"
        }
      ],
      "name": "ERC20InsufficientAllowance",
      "type": "error"
    },
    {
      "inputs": [
        {
          "internalType": "address",
          "name": "sender",
          "type": "address"
        },
        {
          "internalType": "uint256",
          "name": "balance",
          "type": "uint256"
        },
        {
          "internalType": "uint256",
          "name": "needed",
          "type": "uint256"
        }
      ],
      "name": "ERC20InsufficientBalance",
      "type": "error"
    },
    {
      "inputs": [
        {
          "internalType": "address",
          "name": "approver",
          "type": "address"
        }
      ],
      "name": "ERC20InvalidApprover",
      "type": "error"
    },
    {
      "inputs": [
        {
          "internalType": "address",
          "name": "receiver",
          "type": "address"
        }
      ],
      "name": "ERC20InvalidReceiver",
      "type": "error"
    },
    {
      "inputs": [
        {
          "internalType": "address",
          "name": "sender",
          "type": "address"
        }
      ],
      "name": "ERC20InvalidSender",
      "type": "error"
    },
    {
      "inputs": [
        {
          "internalType": "address",
          "name": "spender",
          "type": "address"
        }
      ],
      "name": "ERC20InvalidSpender",
      "type": "error"
    },
    {
      "inputs": [
        {
          "internalType": "uint256",
          "name": "deadline",
          "type": "uint256"
        }
      ],
      "name": "ERC2612ExpiredSignature",
      "type": "error"
    },
    {
      "inputs": [
        {
          "internalType": "address",
          "name": "signer",
          "type": "address"
        },
        {
          "internalType": "address",
          "name": "owner",
          "type": "address"
        }
      ],
      "name": "ERC2612InvalidSigner",
      "type": "error"
    },
    {
      "inputs": [],
      "name": "EnforcedPause",
      "type": "error"
    },
    {
      "inputs": [],
      "name": "ExpectedPause",
      "type": "error"
    },
    {
      "inputs": [
        {
          "internalType": "address",
          "name": "account",
          "type": "address"
        },
        {
          "internalType": "uint256",
          "name": "currentNonce",
          "type": "uint256"
        }
      ],
      "name": "InvalidAccountNonce",
      "type": "error"
    },
    {
      "inputs": [],
      "name": "InvalidShortString",
      "type": "error"
    },
    {
      "inputs": [
        {
          "internalType": "address",
          "name": "owner",
          "type": "address"
        }
      ],
      "name": "OwnableInvalidOwner",
      "type": "error"
    },
    {
      "inputs": [
        {
          "internalType": "address",
          "name": "account",
          "type": "address"
        }
      ],
      "name": "OwnableUnauthorizedAccount",
      "type": "error"
    },
    {
      "inputs": [
        {
          "internalType": "string",
          "name": "str",
          "type": "string"
        }
      ],
      "name": "StringTooLong",
      "type": "error"
    },
    {
      "anonymous": false,
      "inputs": [
        {
          "indexed": true,
          "internalType": "address",
          "name": "owner",
          "type": "address"
        },
        {
          "indexed": true,
          "internalType": "address",
          "name": "spender",
          "type": "address"
        },
        {
          "indexed": false,
          "internalType": "uint256",
          "name": "value",
          "type": "uint256"
        }
      ],
      "name": "Approval",
      "type": "event"
    },
    {
      "anonymous": false,
      "inputs": [],
      "name": "EIP712DomainChanged",
      "type": "event"
    },
    {
      "anonymous": false,
      "inputs": [
        {
          "indexed": true,
          "internalType": "address",
          "name": "to",
          "type": "address"
        },
        {
          "indexed": false,
          "internalType": "uint256",
          "name": "amount",
          "type": "uint256"
        }
      ],
      "name": "Mint",
      "type": "event"
    },
    {
      "anonymous": false,
      "inputs": [
        {
          "indexed": true,
          "internalType": "address",
          "name": "previousOwner",
          "type": "address"
        },
        {
          "indexed": true,
          "internalType": "address",
          "name": "newOwner",
          "type": "address"
        }
      ],
      "name": "OwnershipTransferred",
      "type": "event"
    },
    {
      "anonymous": false,
      "inputs": [
        {
          "indexed": false,
          "internalType": "address",
          "name": "account",
          "type": "address"
        }
      ],
      "name": "Paused",
      "type": "event"
    },
    {
      "anonymous": false,
      "inputs": [
        {
          "indexed": true,
          "internalType": "address",
          "name": "from",
          "type": "address"
        },
        {
          "indexed": true,
          "internalType": "address",
          "name": "to",
          "type": "address"
        },
        {
          "indexed": false,
          "internalType": "uint256",
          "name": "amount",
          "type": "uint256"
        }
      ],
      "name": "TaxTransferred",
      "type": "event"
    },
    {
      "anonymous": false,
      "inputs": [
        {
          "indexed": true,
          "internalType": "address",
          "name": "from",
          "type": "address"
        },
        {
          "indexed": false,
          "internalType": "uint256",
          "name": "amount",
          "type": "uint256"
        }
      ],
      "name": "TokensBurned",
      "type": "event"
    },
    {
      "anonymous": false,
      "inputs": [
        {
          "indexed": true,
          "internalType": "address",
          "name": "from",
          "type": "address"
        },
        {
          "indexed": true,
          "internalType": "address",
          "name": "to",
          "type": "address"
        },
        {
          "indexed": false,
          "internalType": "uint256",
          "name": "value",
          "type": "uint256"
        }
      ],
      "name": "Transfer",
      "type": "event"
    },
    {
      "anonymous": false,
      "inputs": [
        {
          "indexed": false,
          "internalType": "address",
          "name": "account",
          "type": "address"
        }
      ],
      "name": "Unpaused",
      "type": "event"
    },
    {
      "inputs": [],
      "name": "DOMAIN_SEPARATOR",
      "outputs": [
        {
          "internalType": "bytes32",
          "name": "",
          "type": "bytes32"
        }
      ],
      "stateMutability": "view",
      "type": "function"
    },
    {
      "inputs": [],
      "name": "MAX_SUPPLY",
      "outputs": [
        {
          "internalType": "uint256",
          "name": "",
          "type": "uint256"
        }
      ],
      "stateMutability": "view",
      "type": "function"
    },
    {
      "inputs": [
        {
          "internalType": "address",
          "name": "owner",
          "type": "address"
        },
        {
          "internalType": "address",
          "name": "spender",
          "type": "address"
        }
      ],
      "name": "allowance",
      "outputs": [
        {
          "internalType": "uint256",
          "name": "",
          "type": "uint256"
        }
      ],
      "stateMutability": "view",
      "type": "function"
    },
    {
      "inputs": [
        {
          "internalType": "address",
          "name": "spender",
          "type": "address"
        },
        {
          "internalType": "uint256",
          "name": "value",
          "type": "uint256"
        }
      ],
      "name": "approve",
      "outputs": [
        {
          "internalType": "bool",
          "name": "",
          "type": "bool"
        }
      ],
      "stateMutability": "nonpayable",
      "type": "function"
    },
    {
      "inputs": [
        {
          "internalType": "address",
          "name": "account",
          "type": "address"
        }
      ],
      "name": "balanceOf",
      "outputs": [
        {
          "internalType": "uint256",
          "name": "",
          "type": "uint256"
        }
      ],
      "stateMutability": "view",
      "type": "function"
    },
    {
      "inputs": [
        {
          "internalType": "uint256",
          "name": "value",
          "type": "uint256"
        }
      ],
      "name": "burn",
      "outputs": [],
      "stateMutability": "nonpayable",
      "type": "function"
    },
    {
      "inputs": [
        {
          "internalType": "address",
          "name": "account",
          "type": "address"
        },
        {
          "internalType": "uint256",
          "name": "value",
          "type": "uint256"
        }
      ],
      "name": "burnFrom",
      "outputs": [],
      "stateMutability": "nonpayable",
      "type": "function"
    },
    {
      "inputs": [],
      "name": "decimals",
      "outputs": [
        {
          "internalType": "uint8",
          "name": "",
          "type": "uint8"
        }
      ],
      "stateMutability": "view",
      "type": "function"
    },
    {
      "inputs": [],
      "name": "eip712Domain",
      "outputs": [
        {
          "internalType": "bytes1",
          "name": "fields",
          "type": "bytes1"
        },
        {
          "internalType": "string",
          "name": "name",
          "type": "string"
        },
        {
          "internalType": "string",
          "name": "version",
          "type": "string"
        },
        {
          "internalType": "uint256",
          "name": "chainId",
          "type": "uint256"
        },
        {
          "internalType": "address",
          "name": "verifyingContract",
          "type": "address"
        },
        {
          "internalType": "bytes32",
          "name": "salt",
          "type": "bytes32"
        },
        {
          "internalType": "uint256[]",
          "name": "extensions",
          "type": "uint256[]"
        }
      ],
      "stateMutability": "view",
      "type": "function"
    },
    {
      "inputs": [
        {
          "internalType": "address",
          "name": "to",
          "type": "address"
        },
        {
          "internalType": "uint256",
          "name": "amount",
          "type": "uint256"
        }
      ],
      "name": "mint",
      "outputs": [],
      "stateMutability": "nonpayable",
      "type": "function"
    },
    {
      "inputs": [],
      "name": "name",
      "outputs": [
        {
          "internalType": "string",
          "name": "",
          "type": "string"
        }
      ],
      "stateMutability": "view",
      "type": "function"
    },
    {
      "inputs": [
        {
          "internalType": "address",
          "name": "owner",
          "type": "address"
        }
      ],
      "name": "nonces",
      "outputs": [
        {
          "internalType": "uint256",
          "name": "",
          "type": "uint256"
        }
      ],
      "stateMutability": "view",
      "type": "function"
    },
    {
      "inputs": [],
      "name": "owner",
      "outputs": [
        {
          "internalType": "address",
          "name": "",
          "type": "address"
        }
      ],
      "stateMutability": "view",
      "type": "function"
    },
    {
      "inputs": [],
      "name": "pause",
      "outputs": [],
      "stateMutability": "nonpayable",
      "type": "function"
    },
    {
      "inputs": [],
      "name": "paused",
      "outputs": [
        {
          "internalType": "bool",
          "name": "",
          "type": "bool"
        }
      ],
      "stateMutability": "view",
      "type": "function"
    },
    {
      "inputs": [
        {
          "internalType": "address",
          "name": "owner",
          "type": "address"
        },
        {
          "internalType": "address",
          "name": "spender",
          "type": "address"
        },
        {
          "internalType": "uint256",
          "name": "value",
          "type": "uint256"
        },
        {
          "internalType": "uint256",
          "name": "deadline",
          "type": "uint256"
        },
        {
          "internalType": "uint8",
          "name": "v",
          "type": "uint8"
        },
        {
          "internalType": "bytes32",
          "name": "r",
          "type": "bytes32"
        },
        {
          "internalType": "bytes32",
          "name": "s",
          "type": "bytes32"
        }
      ],
      "name": "permit",
      "outputs": [],
      "stateMutability": "nonpayable",
      "type": "function"
    },
    {
      "inputs": [],
      "name": "renounceOwnership",
      "outputs": [],
      "stateMutability": "nonpayable",
      "type": "function"
    },
    {
      "inputs": [
        {
          "internalType": "address",
          "name": "_treasuryWallet",
          "type": "address"
        }
      ],
      "name": "setTreasuryWallet",
      "outputs": [],
      "stateMutability": "nonpayable",
      "type": "function"
    },
    {
      "inputs": [],
      "name": "symbol",
      "outputs": [
        {
          "internalType": "string",
          "name": "",
          "type": "string"
        }
      ],
      "stateMutability": "view",
      "type": "function"
    },
    {
      "inputs": [],
      "name": "totalSupply",
      "outputs": [
        {
          "internalType": "uint256",
          "name": "",
          "type": "uint256"
        }
      ],
      "stateMutability": "view",
      "type": "function"
    },
    {
      "inputs": [
        {
          "internalType": "address",
          "name": "to",
          "type": "address"
        },
        {
          "internalType": "uint256",
          "name": "value",
          "type": "uint256"
        }
      ],
      "name": "transfer",
      "outputs": [
        {
          "internalType": "bool",
          "name": "",
          "type": "bool"
        }
      ],
      "stateMutability": "nonpayable",
      "type": "function"
    },
    {
      "inputs": [
        {
          "internalType": "address",
          "name": "from",
          "type": "address"
        },
        {
          "internalType": "address",
          "name": "to",
          "type": "address"
        },
        {
          "internalType": "uint256",
          "name": "value",
          "type": "uint256"
        }
      ],
      "name": "transferFrom",
      "outputs": [
        {
          "internalType": "bool",
          "name": "",
          "type": "bool"
        }
      ],
      "stateMutability": "nonpayable",
      "type": "function"
    },
    {
      "inputs": [
        {
          "internalType": "address",
          "name": "newOwner",
          "type": "address"
        }
      ],
      "name": "transferOwnership",
      "outputs": [],
      "stateMutability": "nonpayable",
      "type": "function"
    },
    {
      "inputs": [],
      "name": "treasuryWallet",
      "outputs": [
        {
          "internalType": "address",
          "name": "",
          "type": "address"
        }
      ],
      "stateMutability": "view",
      "type": "function"
    },
    {
      "inputs": [],
      "name": "unpause",
      "outputs": [],
      "stateMutability": "nonpayable",
      "type": "function"
    }
  ],
  "bytecode": "0x6101606040523480156200001257600080fd5b506040516200411238038062004112833981810160405281019062000038919062000b10565b6040518060400160405280600b81526020017f496e7465726e546f6b656e000000000000000000000000000000000000000000815250806040518060400160405280600181526020017f3100000000000000000000000000000000000000000000000000000000000000815250836040518060400160405280600b81526020017f496e7465726e546f6b656e0000000000000000000000000000000000000000008152506040518060400160405280600381526020017f494e540000000000000000000000000000000000000000000000000000000000815250816003908162000123919062000dd1565b50806004908162000135919062000dd1565b5050506000600560006101000a81548160ff021916908315150217905550600073ffffffffffffffffffffffffffffffffffffffff168173ffffffffffffffffffffffffffffffffffffffff1603620001c85760006040517f1e4fbdf7000000000000000000000000000000000000000000000000000000008152600401620001bf919062000ec9565b60405180910390fd5b620001d981620002af60201b60201c565b50620001f06006836200037560201b90919060201c565b61012081815250506200020e6007826200037560201b90919060201c565b6101408181525050818051906020012060e08181525050808051906020012061010081815250504660a081815250506200024d620003cd60201b60201c565b608081815250503073ffffffffffffffffffffffffffffffffffffffff1660c08173ffffffffffffffffffffffffffffffffffffffff1681525050505050620002a7826969e10de76676d08000006200042a60201b60201c565b5050620013a5565b6000600560019054906101000a900473ffffffffffffffffffffffffffffffffffffffff16905081600560016101000a81548173ffffffffffffffffffffffffffffffffffffffff021916908373ffffffffffffffffffffffffffffffffffffffff1602179055508173ffffffffffffffffffffffffffffffffffffffff168173ffffffffffffffffffffffffffffffffffffffff167f8be0079c531659141344cd1fd0a4f28419497f9722a3daafe3b4186f6b6457e060405160405180910390a35050565b60006020835110156200039b576200039383620004b760201b60201c565b9050620003c7565b82620003ad836200052460201b60201c565b6000019081620003be919062000dd1565b5060ff60001b90505b92915050565b60007f8b73c3c69bb8fe3d512ecc4cf759cc79239f7b179b0ffacaa9a75d522b39400f60e0516101005146306040516020016200040f95949392919062000f12565b60405160208183030381529060405280519060200120905090565b600073ffffffffffffffffffffffffffffffffffffffff168273ffffffffffffffffffffffffffffffffffffffff16036200049f5760006040517fec442f0500000000000000000000000000000000000000000000000000000000815260040162000496919062000ec9565b60405180910390fd5b620004b3600083836200052e60201b60201c565b5050565b600080829050601f815111156200050757826040517f305a27a9000000000000000000000000000000000000000000000000000000008152600401620004fe919062000ffe565b60405180910390fd5b805181620005159062001054565b60001c1760001b915050919050565b6000819050919050565b6000811162000574576040517f08c379a00000000000000000000000000000000000000000000000000000000081526004016200056b906200113a565b60405180910390fd5b62000584620007ed60201b60201c565b15620005c7576040517f08c379a0000000000000000000000000000000000000000000000000000000008152600401620005be90620011d2565b60405180910390fd5b600073ffffffffffffffffffffffffffffffffffffffff168373ffffffffffffffffffffffffffffffffffffffff1614806200062f5750600073ffffffffffffffffffffffffffffffffffffffff168273ffffffffffffffffffffffffffffffffffffffff16145b156200064e57620006488383836200080460201b60201c565b620007e8565b6000606460028362000661919062001223565b6200066d91906200129d565b90506000606460018462000682919062001223565b6200068e91906200129d565b90506000818385620006a19190620012d5565b620006ad9190620012d5565b9050620006e486600960009054906101000a900473ffffffffffffffffffffffffffffffffffffffff16856200080460201b60201c565b600960009054906101000a900473ffffffffffffffffffffffffffffffffffffffff1673ffffffffffffffffffffffffffffffffffffffff168673ffffffffffffffffffffffffffffffffffffffff167fc7b502dc96272fc1c98fbaad0d8ad6c0733fe881ae431ec0ff12ab3ceaee2bd48560405162000765919062001310565b60405180910390a38573ffffffffffffffffffffffffffffffffffffffff167ffd38818f5291bf0bb3a2a48aadc06ba8757865d1dabd804585338aab3009dcb683604051620007b5919062001310565b60405180910390a2620007d08686836200080460201b60201c565b620007e4866000846200080460201b60201c565b5050505b505050565b6000600560009054906101000a900460ff16905090565b620008146200082c60201b60201c565b620008278383836200087660201b60201c565b505050565b6200083c620007ed60201b60201c565b1562000874576040517fd93c066500000000000000000000000000000000000000000000000000000000815260040160405180910390fd5b565b600073ffffffffffffffffffffffffffffffffffffffff168373ffffffffffffffffffffffffffffffffffffffff1603620008cc578060026000828254620008bf91906200132d565b92505081905550620009a2565b60008060008573ffffffffffffffffffffffffffffffffffffffff1673ffffffffffffffffffffffffffffffffffffffff168152602001908152602001600020549050818110156200095b578381836040517fe450d38c000000000000000000000000000000000000000000000000000000008152600401620009529392919062001368565b60405180910390fd5b8181036000808673ffffffffffffffffffffffffffffffffffffffff1673ffffffffffffffffffffffffffffffffffffffff16815260200190815260200160002081905550505b600073ffffffffffffffffffffffffffffffffffffffff168273ffffffffffffffffffffffffffffffffffffffff1603620009ed578060026000828254039250508190555062000a3a565b806000808473ffffffffffffffffffffffffffffffffffffffff1673ffffffffffffffffffffffffffffffffffffffff168152602001908152602001600020600082825401925050819055505b8173ffffffffffffffffffffffffffffffffffffffff168373ffffffffffffffffffffffffffffffffffffffff167fddf252ad1be2c89b69c2b068fc378daa952ba7f163c4a11628f55a4df523b3ef8360405162000a99919062001310565b60405180910390a3505050565b600080fd5b600073ffffffffffffffffffffffffffffffffffffffff82169050919050565b600062000ad88262000aab565b9050919050565b62000aea8162000acb565b811462000af657600080fd5b50565b60008151905062000b0a8162000adf565b92915050565b6000806040838503121562000b2a5762000b2962000aa6565b5b600062000b3a8582860162000af9565b925050602062000b4d8582860162000af9565b9150509250929050565b600081519050919050565b7f4e487b7100000000000000000000000000000000000000000000000000000000600052604160045260246000fd5b7f4e487b7100000000000000000000000000000000000000000000000000000000600052602260045260246000fd5b6000600282049050600182168062000bd957607f821691505b60208210810362000bef5762000bee62000b91565b5b50919050565b60008190508160005260206000209050919050565b60006020601f8301049050919050565b600082821b905092915050565b60006008830262000c597fffffffffffffffffffffffffffffffffffffffffffffffffffffffffffffffff8262000c1a565b62000c65868362000c1a565b95508019841693508086168417925050509392505050565b6000819050919050565b6000819050919050565b600062000cb262000cac62000ca68462000c7d565b62000c87565b62000c7d565b9050919050565b6000819050919050565b62000cce8362000c91565b62000ce662000cdd8262000cb9565b84845462000c27565b825550505050565b600090565b62000cfd62000cee565b62000d0a81848462000cc3565b505050565b5b8181101562000d325762000d2660008262000cf3565b60018101905062000d10565b5050565b601f82111562000d815762000d4b8162000bf5565b62000d568462000c0a565b8101602085101562000d66578190505b62000d7e62000d758562000c0a565b83018262000d0f565b50505b505050565b600082821c905092915050565b600062000da66000198460080262000d86565b1980831691505092915050565b600062000dc1838362000d93565b9150826002028217905092915050565b62000ddc8262000b57565b67ffffffffffffffff81111562000df85762000df762000b62565b5b62000e04825462000bc0565b62000e1182828562000d36565b600060209050601f83116001811462000e49576000841562000e34578287015190505b62000e40858262000db3565b86555062000eb0565b601f19841662000e598662000bf5565b60005b8281101562000e835784890151825560018201915060208501945060208101905062000e5c565b8683101562000ea3578489015162000e9f601f89168262000d93565b8355505b6001600288020188555050505b505050505050565b62000ec38162000acb565b82525050565b600060208201905062000ee0600083018462000eb8565b92915050565b6000819050919050565b62000efb8162000ee6565b82525050565b62000f0c8162000c7d565b82525050565b600060a08201905062000f29600083018862000ef0565b62000f38602083018762000ef0565b62000f47604083018662000ef0565b62000f56606083018562000f01565b62000f65608083018462000eb8565b9695505050505050565b600082825260208201905092915050565b60005b8381101562000fa057808201518184015260208101905062000f83565b60008484015250505050565b6000601f19601f8301169050919050565b600062000fca8262000b57565b62000fd6818562000f6f565b935062000fe881856020860162000f80565b62000ff38162000fac565b840191505092915050565b600060208201905081810360008301526200101a818462000fbd565b905092915050565b600081519050919050565b6000819050602082019050919050565b60006200104b825162000ee6565b80915050919050565b6000620010618262001022565b826200106d846200102d565b90506200107a816200103d565b92506020821015620010bd57620010b87fffffffffffffffffffffffffffffffffffffffffffffffffffffffffffffffff8360200360080262000c1a565b831692505b5050919050565b7f496e7465726e546f6b656e3a207472616e7366657220616d6f756e74206d757360008201527f742062652067726561746572207468616e203000000000000000000000000000602082015250565b60006200112260338362000f6f565b91506200112f82620010c4565b604082019050919050565b60006020820190508181036000830152620011558162001113565b9050919050565b7f496e7465726e546f6b656e3a205472616e73666572732061726520706175736560008201527f6400000000000000000000000000000000000000000000000000000000000000602082015250565b6000620011ba60218362000f6f565b9150620011c7826200115c565b604082019050919050565b60006020820190508181036000830152620011ed81620011ab565b9050919050565b7f4e487b7100000000000000000000000000000000000000000000000000000000600052601160045260246000fd5b6000620012308262000c7d565b91506200123d8362000c7d565b92508282026200124d8162000c7d565b91508282048414831517620012675762001266620011f4565b5b5092915050565b7f4e487b7100000000000000000000000000000000000000000000000000000000600052601260045260246000fd5b6000620012aa8262000c7d565b9150620012b78362000c7d565b925082620012ca57620012c96200126e565b5b828204905092915050565b6000620012e28262000c7d565b9150620012ef8362000c7d565b92508282039050818111156200130a5762001309620011f4565b5b92915050565b600060208201905062001327600083018462000f01565b92915050565b60006200133a8262000c7d565b9150620013478362000c7d565b9250828201905080821115620013625762001361620011f4565b5b92915050565b60006060820190506200137f600083018662000eb8565b6200138e602083018562000f01565b6200139d604083018462000f01565b949350505050565b60805160a05160c05160e051610100516101205161014051612d12620014006000396000611321015260006112e60152600061188f0152600061186e01526000610eca01526000610f2001526000610f490152612d126000f3fe608060405234801561001057600080fd5b50600436106101735760003560e01c806370a08231116100de5780638da5cb5b11610097578063a9059cbb11610071578063a9059cbb146103f8578063d505accf14610428578063dd62ed3e14610444578063f2fde38b1461047457610173565b80638da5cb5b146103a057806395d89b41146103be578063a8602fea146103dc57610173565b806370a08231146102ec578063715018a61461031c57806379cc6790146103265780637ecebe00146103425780638456cb591461037257806384b0196e1461037c57610173565b80633644e515116101305780633644e515146102505780633f4ba83a1461026e57806340c10f191461027857806342966c68146102945780634626402b146102b05780635c975abb146102ce57610173565b806306fdde0314610178578063095ea7b31461019657806318160ddd146101c657806323b872dd146101e4578063313ce5671461021457806332cb6b0c14610232575b600080fd5b610180610490565b60405161018d919061203a565b60405180910390f35b6101b060048036038101906101ab91906120f5565b610522565b6040516101bd9190612150565b60405180910390f35b6101ce610545565b6040516101db919061217a565b60405180910390f35b6101fe60048036038101906101f99190612195565b61054f565b60405161020b9190612150565b60405180910390f35b61021c61057e565b6040516102299190612204565b60405180910390f35b61023a610587565b604051610247919061217a565b60405180910390f35b610258610595565b6040516102659190612238565b60405180910390f35b6102766105a4565b005b610292600480360381019061028d91906120f5565b6105b6565b005b6102ae60048036038101906102a99190612253565b61072b565b005b6102b861073f565b6040516102c5919061228f565b60405180910390f35b6102d6610765565b6040516102e39190612150565b60405180910390f35b610306600480360381019061030191906122aa565b61077c565b604051610313919061217a565b60405180910390f35b6103246107c4565b005b610340600480360381019061033b91906120f5565b6107d8565b005b61035c600480360381019061035791906122aa565b6107f8565b604051610369919061217a565b60405180910390f35b61037a61080a565b005b61038461081c565b60405161039797969594939291906123d0565b60405180910390f35b6103a86108c6565b6040516103b5919061228f565b60405180910390f35b6103c66108f0565b6040516103d3919061203a565b60405180910390f35b6103f660048036038101906103f191906122aa565b610982565b005b610412600480360381019061040d91906120f5565b610aab565b60405161041f9190612150565b60405180910390f35b610442600480360381019061043d91906124ac565b610ace565b005b61045e6004803603810190610459919061254e565b610c16565b60405161046b919061217a565b60405180910390f35b61048e600480360381019061048991906122aa565b610c9d565b005b60606003805461049f906125bd565b80601f01602080910402602001604051908101604052809291908181526020018280546104cb906125bd565b80156105185780601f106104ed57610100808354040283529160200191610518565b820191906000526020600020905b8154815290600101906020018083116104fb57829003601f168201915b5050505050905090565b60008061052d610d23565b905061053a818585610d2b565b600191505092915050565b6000600254905090565b60008061055a610d23565b9050610567858285610d3d565b610572858585610dd2565b60019150509392505050565b60006012905090565b69d3c21bcecceda100000081565b600061059f610ec6565b905090565b6105ac610f7d565b6105b4611004565b565b6105be610f7d565b600073ffffffffffffffffffffffffffffffffffffffff168273ffffffffffffffffffffffffffffffffffffffff160361062d576040517f08c379a000000000000000000000000000000000000000000000000000000000815260040161062490612660565b60405180910390fd5b60008111610670576040517f08c379a0000000000000000000000000000000000000000000000000000000008152600401610667906126f2565b60405180910390fd5b69d3c21bcecceda100000081610684610545565b61068e9190612741565b11156106cf576040517f08c379a00000000000000000000000000000000000000000000000000000000081526004016106c6906127e7565b60405180910390fd5b8173ffffffffffffffffffffffffffffffffffffffff167f0f6798a560793a54c3bcfe86a93cde1e73087d944c0ea20544137d412139688582604051610715919061217a565b60405180910390a26107278282611067565b5050565b61073c610736610d23565b826110e9565b50565b600960009054906101000a900473ffffffffffffffffffffffffffffffffffffffff1681565b6000600560009054906101000a900460ff16905090565b60008060008373ffffffffffffffffffffffffffffffffffffffff1673ffffffffffffffffffffffffffffffffffffffff168152602001908152602001600020549050919050565b6107cc610f7d565b6107d6600061116b565b565b6107ea826107e4610d23565b83610d3d565b6107f482826110e9565b5050565b600061080382611231565b9050919050565b610812610f7d565b61081a61127a565b565b6000606080600080600060606108306112dd565b610838611318565b46306000801b600067ffffffffffffffff81111561085957610858612807565b5b6040519080825280602002602001820160405280156108875781602001602082028036833780820191505090505b507f0f00000000000000000000000000000000000000000000000000000000000000959493929190965096509650965096509650965090919293949596565b6000600560019054906101000a900473ffffffffffffffffffffffffffffffffffffffff16905090565b6060600480546108ff906125bd565b80601f016020809104026020016040519081016040528092919081815260200182805461092b906125bd565b80156109785780601f1061094d57610100808354040283529160200191610978565b820191906000526020600020905b81548152906001019060200180831161095b57829003601f168201915b5050505050905090565b61098a610f7d565b600073ffffffffffffffffffffffffffffffffffffffff168173ffffffffffffffffffffffffffffffffffffffff16036109f9576040517f08c379a00000000000000000000000000000000000000000000000000000000081526004016109f0906128a8565b60405180910390fd5b3073ffffffffffffffffffffffffffffffffffffffff168173ffffffffffffffffffffffffffffffffffffffff1603610a67576040517f08c379a0000000000000000000000000000000000000000000000000000000008152600401610a5e9061293a565b60405180910390fd5b80600960006101000a81548173ffffffffffffffffffffffffffffffffffffffff021916908373ffffffffffffffffffffffffffffffffffffffff16021790555050565b600080610ab6610d23565b9050610ac3818585610dd2565b600191505092915050565b83421115610b1357836040517f62791302000000000000000000000000000000000000000000000000000000008152600401610b0a919061217a565b60405180910390fd5b60007f6e71edae12b1b97f4d1f60370fef10105fa2faae0126114a169c64845d6126c9888888610b428c611353565b89604051602001610b589695949392919061295a565b6040516020818303038152906040528051906020012090506000610b7b826113aa565b90506000610b8b828787876113c4565b90508973ffffffffffffffffffffffffffffffffffffffff168173ffffffffffffffffffffffffffffffffffffffff1614610bff57808a6040517f4b800e46000000000000000000000000000000000000000000000000000000008152600401610bf69291906129bb565b60405180910390fd5b610c0a8a8a8a610d2b565b50505050505050505050565b6000600160008473ffffffffffffffffffffffffffffffffffffffff1673ffffffffffffffffffffffffffffffffffffffff16815260200190815260200160002060008373ffffffffffffffffffffffffffffffffffffffff1673ffffffffffffffffffffffffffffffffffffffff16815260200190815260200160002054905092915050565b610ca5610f7d565b600073ffffffffffffffffffffffffffffffffffffffff168173ffffffffffffffffffffffffffffffffffffffff1603610d175760006040517f1e4fbdf7000000000000000000000000000000000000000000000000000000008152600401610d0e919061228f565b60405180910390fd5b610d208161116b565b50565b600033905090565b610d3883838360016113f4565b505050565b6000610d498484610c16565b90507fffffffffffffffffffffffffffffffffffffffffffffffffffffffffffffffff811015610dcc5781811015610dbc578281836040517ffb8f41b2000000000000000000000000000000000000000000000000000000008152600401610db3939291906129e4565b60405180910390fd5b610dcb848484840360006113f4565b5b50505050565b600073ffffffffffffffffffffffffffffffffffffffff168373ffffffffffffffffffffffffffffffffffffffff1603610e445760006040517f96c6fd1e000000000000000000000000000000000000000000000000000000008152600401610e3b919061228f565b60405180910390fd5b600073ffffffffffffffffffffffffffffffffffffffff168273ffffffffffffffffffffffffffffffffffffffff1603610eb65760006040517fec442f05000000000000000000000000000000000000000000000000000000008152600401610ead919061228f565b60405180910390fd5b610ec18383836115cb565b505050565b60007f000000000000000000000000000000000000000000000000000000000000000073ffffffffffffffffffffffffffffffffffffffff163073ffffffffffffffffffffffffffffffffffffffff16148015610f4257507f000000000000000000000000000000000000000000000000000000000000000046145b15610f6f577f00000000000000000000000000000000000000000000000000000000000000009050610f7a565b610f77611849565b90505b90565b610f85610d23565b73ffffffffffffffffffffffffffffffffffffffff16610fa36108c6565b73ffffffffffffffffffffffffffffffffffffffff161461100257610fc6610d23565b6040517f118cdaa7000000000000000000000000000000000000000000000000000000008152600401610ff9919061228f565b60405180910390fd5b565b61100c6118df565b6000600560006101000a81548160ff0219169083151502179055507f5db9ee0a495bf2e6ff9c91a7834c1ba4fdd244a5e8aa4e537bd38aeae4b073aa611050610d23565b60405161105d919061228f565b60405180910390a1565b600073ffffffffffffffffffffffffffffffffffffffff168273ffffffffffffffffffffffffffffffffffffffff16036110d95760006040517fec442f050000000000000000000000000000000000000000000000000000000081526004016110d0919061228f565b60405180910390fd5b6110e5600083836115cb565b5050565b600073ffffffffffffffffffffffffffffffffffffffff168273ffffffffffffffffffffffffffffffffffffffff160361115b5760006040517f96c6fd1e000000000000000000000000000000000000000000000000000000008152600401611152919061228f565b60405180910390fd5b611167826000836115cb565b5050565b6000600560019054906101000a900473ffffffffffffffffffffffffffffffffffffffff16905081600560016101000a81548173ffffffffffffffffffffffffffffffffffffffff021916908373ffffffffffffffffffffffffffffffffffffffff1602179055508173ffffffffffffffffffffffffffffffffffffffff168173ffffffffffffffffffffffffffffffffffffffff167f8be0079c531659141344cd1fd0a4f28419497f9722a3daafe3b4186f6b6457e060405160405180910390a35050565b6000600860008373ffffffffffffffffffffffffffffffffffffffff1673ffffffffffffffffffffffffffffffffffffffff168152602001908152602001600020549050919050565b61128261191f565b6001600560006101000a81548160ff0219169083151502179055507f62e78cea01bee320cd4e420270b5ea74000d11b0c9f74754ebdbfc544b05a2586112c6610d23565b6040516112d3919061228f565b60405180910390a1565b606061131360067f000000000000000000000000000000000000000000000000000000000000000061196090919063ffffffff16565b905090565b606061134e60077f000000000000000000000000000000000000000000000000000000000000000061196090919063ffffffff16565b905090565b6000600860008373ffffffffffffffffffffffffffffffffffffffff1673ffffffffffffffffffffffffffffffffffffffff1681526020019081526020016000206000815480929190600101919050559050919050565b60006113bd6113b7610ec6565b83611a10565b9050919050565b6000806000806113d688888888611a51565b9250925092506113e68282611b45565b829350505050949350505050565b600073ffffffffffffffffffffffffffffffffffffffff168473ffffffffffffffffffffffffffffffffffffffff16036114665760006040517fe602df0500000000000000000000000000000000000000000000000000000000815260040161145d919061228f565b60405180910390fd5b600073ffffffffffffffffffffffffffffffffffffffff168373ffffffffffffffffffffffffffffffffffffffff16036114d85760006040517f94280d620000000000000000000000000000000000000000000000000000000081526004016114cf919061228f565b60405180910390fd5b81600160008673ffffffffffffffffffffffffffffffffffffffff1673ffffffffffffffffffffffffffffffffffffffff16815260200190815260200160002060008573ffffffffffffffffffffffffffffffffffffffff1673ffffffffffffffffffffffffffffffffffffffff1681526020019081526020016000208190555080156115c5578273ffffffffffffffffffffffffffffffffffffffff168473ffffffffffffffffffffffffffffffffffffffff167f8c5be1e5ebec7d5bd14f71427d1e84f3dd0314c0f7b2291e5b200ac8c7c3b925846040516115bc919061217a565b60405180910390a35b50505050565b6000811161160e576040517f08c379a000000000000000000000000000000000000000000000000000000000815260040161160590612a8d565b60405180910390fd5b611616610765565b15611656576040517f08c379a000000000000000000000000000000000000000000000000000000000815260040161164d90612b1f565b60405180910390fd5b600073ffffffffffffffffffffffffffffffffffffffff168373ffffffffffffffffffffffffffffffffffffffff1614806116bd5750600073ffffffffffffffffffffffffffffffffffffffff168273ffffffffffffffffffffffffffffffffffffffff16145b156116d2576116cd838383611ca9565b611844565b600060646002836116e39190612b3f565b6116ed9190612bb0565b9050600060646001846117009190612b3f565b61170a9190612bb0565b9050600081838561171b9190612be1565b6117259190612be1565b905061175486600960009054906101000a900473ffffffffffffffffffffffffffffffffffffffff1685611ca9565b600960009054906101000a900473ffffffffffffffffffffffffffffffffffffffff1673ffffffffffffffffffffffffffffffffffffffff168673ffffffffffffffffffffffffffffffffffffffff167fc7b502dc96272fc1c98fbaad0d8ad6c0733fe881ae431ec0ff12ab3ceaee2bd4856040516117d3919061217a565b60405180910390a38573ffffffffffffffffffffffffffffffffffffffff167ffd38818f5291bf0bb3a2a48aadc06ba8757865d1dabd804585338aab3009dcb683604051611821919061217a565b60405180910390a2611834868683611ca9565b61184086600084611ca9565b5050505b505050565b60007f8b73c3c69bb8fe3d512ecc4cf759cc79239f7b179b0ffacaa9a75d522b39400f7f00000000000000000000000000000000000000000000000000000000000000007f000000000000000000000000000000000000000000000000000000000000000046306040516020016118c4959493929190612c15565b60405160208183030381529060405280519060200120905090565b6118e7610765565b61191d576040517f8dfc202b00000000000000000000000000000000000000000000000000000000815260040160405180910390fd5b565b611927610765565b1561195e576040517fd93c066500000000000000000000000000000000000000000000000000000000815260040160405180910390fd5b565b606060ff60001b831461197d5761197683611cc1565b9050611a0a565b818054611989906125bd565b80601f01602080910402602001604051908101604052809291908181526020018280546119b5906125bd565b8015611a025780601f106119d757610100808354040283529160200191611a02565b820191906000526020600020905b8154815290600101906020018083116119e557829003601f168201915b505050505090505b92915050565b60006040517f190100000000000000000000000000000000000000000000000000000000000081528360028201528260228201526042812091505092915050565b60008060007f7fffffffffffffffffffffffffffffff5d576e7357a4501ddfe92f46681b20a08460001c1115611a91576000600385925092509250611b3b565b600060018888888860405160008152602001604052604051611ab69493929190612c68565b6020604051602081039080840390855afa158015611ad8573d6000803e3d6000fd5b505050602060405103519050600073ffffffffffffffffffffffffffffffffffffffff168173ffffffffffffffffffffffffffffffffffffffff1603611b2c57600060016000801b93509350935050611b3b565b8060008060001b935093509350505b9450945094915050565b60006003811115611b5957611b58612cad565b5b826003811115611b6c57611b6b612cad565b5b0315611ca55760016003811115611b8657611b85612cad565b5b826003811115611b9957611b98612cad565b5b03611bd0576040517ff645eedf00000000000000000000000000000000000000000000000000000000815260040160405180910390fd5b60026003811115611be457611be3612cad565b5b826003811115611bf757611bf6612cad565b5b03611c3c578060001c6040517ffce698f7000000000000000000000000000000000000000000000000000000008152600401611c33919061217a565b60405180910390fd5b600380811115611c4f57611c4e612cad565b5b826003811115611c6257611c61612cad565b5b03611ca457806040517fd78bce0c000000000000000000000000000000000000000000000000000000008152600401611c9b9190612238565b60405180910390fd5b5b5050565b611cb161191f565b611cbc838383611d35565b505050565b60606000611cce83611f5a565b90506000602067ffffffffffffffff811115611ced57611cec612807565b5b6040519080825280601f01601f191660200182016040528015611d1f5781602001600182028036833780820191505090505b5090508181528360208201528092505050919050565b600073ffffffffffffffffffffffffffffffffffffffff168373ffffffffffffffffffffffffffffffffffffffff1603611d87578060026000828254611d7b9190612741565b92505081905550611e5a565b60008060008573ffffffffffffffffffffffffffffffffffffffff1673ffffffffffffffffffffffffffffffffffffffff16815260200190815260200160002054905081811015611e13578381836040517fe450d38c000000000000000000000000000000000000000000000000000000008152600401611e0a939291906129e4565b60405180910390fd5b8181036000808673ffffffffffffffffffffffffffffffffffffffff1673ffffffffffffffffffffffffffffffffffffffff16815260200190815260200160002081905550505b600073ffffffffffffffffffffffffffffffffffffffff168273ffffffffffffffffffffffffffffffffffffffff1603611ea35780600260008282540392505081905550611ef0565b806000808473ffffffffffffffffffffffffffffffffffffffff1673ffffffffffffffffffffffffffffffffffffffff168152602001908152602001600020600082825401925050819055505b8173ffffffffffffffffffffffffffffffffffffffff168373ffffffffffffffffffffffffffffffffffffffff167fddf252ad1be2c89b69c2b068fc378daa952ba7f163c4a11628f55a4df523b3ef83604051611f4d919061217a565b60405180910390a3505050565b60008060ff8360001c169050601f811115611fa1576040517fb3512b0c00000000000000000000000000000000000000000000000000000000815260040160405180910390fd5b80915050919050565b600081519050919050565b600082825260208201905092915050565b60005b83811015611fe4578082015181840152602081019050611fc9565b60008484015250505050565b6000601f19601f8301169050919050565b600061200c82611faa565b6120168185611fb5565b9350612026818560208601611fc6565b61202f81611ff0565b840191505092915050565b600060208201905081810360008301526120548184612001565b905092915050565b600080fd5b600073ffffffffffffffffffffffffffffffffffffffff82169050919050565b600061208c82612061565b9050919050565b61209c81612081565b81146120a757600080fd5b50565b6000813590506120b981612093565b92915050565b6000819050919050565b6120d2816120bf565b81146120dd57600080fd5b50565b6000813590506120ef816120c9565b92915050565b6000806040838503121561210c5761210b61205c565b5b600061211a858286016120aa565b925050602061212b858286016120e0565b9150509250929050565b60008115159050919050565b61214a81612135565b82525050565b60006020820190506121656000830184612141565b92915050565b612174816120bf565b82525050565b600060208201905061218f600083018461216b565b92915050565b6000806000606084860312156121ae576121ad61205c565b5b60006121bc868287016120aa565b93505060206121cd868287016120aa565b92505060406121de868287016120e0565b9150509250925092565b600060ff82169050919050565b6121fe816121e8565b82525050565b600060208201905061221960008301846121f5565b92915050565b6000819050919050565b6122328161221f565b82525050565b600060208201905061224d6000830184612229565b92915050565b6000602082840312156122695761226861205c565b5b6000612277848285016120e0565b91505092915050565b61228981612081565b82525050565b60006020820190506122a46000830184612280565b92915050565b6000602082840312156122c0576122bf61205c565b5b60006122ce848285016120aa565b91505092915050565b60007fff0000000000000000000000000000000000000000000000000000000000000082169050919050565b61230c816122d7565b82525050565b600081519050919050565b600082825260208201905092915050565b6000819050602082019050919050565b612347816120bf565b82525050565b6000612359838361233e565b60208301905092915050565b6000602082019050919050565b600061237d82612312565b612387818561231d565b93506123928361232e565b8060005b838110156123c35781516123aa888261234d565b97506123b583612365565b925050600181019050612396565b5085935050505092915050565b600060e0820190506123e5600083018a612303565b81810360208301526123f78189612001565b9050818103604083015261240b8188612001565b905061241a606083018761216b565b6124276080830186612280565b61243460a0830185612229565b81810360c08301526124468184612372565b905098975050505050505050565b61245d816121e8565b811461246857600080fd5b50565b60008135905061247a81612454565b92915050565b6124898161221f565b811461249457600080fd5b50565b6000813590506124a681612480565b92915050565b600080600080600080600060e0888a0312156124cb576124ca61205c565b5b60006124d98a828b016120aa565b97505060206124ea8a828b016120aa565b96505060406124fb8a828b016120e0565b955050606061250c8a828b016120e0565b945050608061251d8a828b0161246b565b93505060a061252e8a828b01612497565b92505060c061253f8a828b01612497565b91505092959891949750929550565b600080604083850312156125655761256461205c565b5b6000612573858286016120aa565b9250506020612584858286016120aa565b9150509250929050565b7f4e487b7100000000000000000000000000000000000000000000000000000000600052602260045260246000fd5b600060028204905060018216806125d557607f821691505b6020821081036125e8576125e761258e565b5b50919050565b7f496e7465726e546f6b656e3a206d696e7420746f20746865207a65726f20616460008201527f6472657373000000000000000000000000000000000000000000000000000000602082015250565b600061264a602583611fb5565b9150612655826125ee565b604082019050919050565b600060208201905081810360008301526126798161263d565b9050919050565b7f496e7465726e546f6b656e3a206d696e7420616d6f756e74206d75737420626560008201527f2067726561746572207468616e20300000000000000000000000000000000000602082015250565b60006126dc602f83611fb5565b91506126e782612680565b604082019050919050565b6000602082019050818103600083015261270b816126cf565b9050919050565b7f4e487b7100000000000000000000000000000000000000000000000000000000600052601160045260246000fd5b600061274c826120bf565b9150612757836120bf565b925082820190508082111561276f5761276e612712565b5b92915050565b7f496e7465726e546f6b656e3a206d696e7420616d6f756e74206578636565647360008201527f20746f74616c20737570706c7900000000000000000000000000000000000000602082015250565b60006127d1602d83611fb5565b91506127dc82612775565b604082019050919050565b60006020820190508181036000830152612800816127c4565b9050919050565b7f4e487b7100000000000000000000000000000000000000000000000000000000600052604160045260246000fd5b7f496e7465726e546f6b656e3a2074726561737572792077616c6c65742069732060008201527f746865207a65726f206164647265737300000000000000000000000000000000602082015250565b6000612892603083611fb5565b915061289d82612836565b604082019050919050565b600060208201905081810360008301526128c181612885565b9050919050565b7f496e7465726e546f6b656e3a2074726561737572792077616c6c65742063616e60008201527f6e6f742062652074686520636f6e747261637420697473656c66000000000000602082015250565b6000612924603a83611fb5565b915061292f826128c8565b604082019050919050565b6000602082019050818103600083015261295381612917565b9050919050565b600060c08201905061296f6000830189612229565b61297c6020830188612280565b6129896040830187612280565b612996606083018661216b565b6129a3608083018561216b565b6129b060a083018461216b565b979650505050505050565b60006040820190506129d06000830185612280565b6129dd6020830184612280565b9392505050565b60006060820190506129f96000830186612280565b612a06602083018561216b565b612a13604083018461216b565b949350505050565b7f496e7465726e546f6b656e3a207472616e7366657220616d6f756e74206d757360008201527f742062652067726561746572207468616e203000000000000000000000000000602082015250565b6000612a77603383611fb5565b9150612a8282612a1b565b604082019050919050565b60006020820190508181036000830152612aa681612a6a565b9050919050565b7f496e7465726e546f6b656e3a205472616e73666572732061726520706175736560008201527f6400000000000000000000000000000000000000000000000000000000000000602082015250565b6000612b09602183611fb5565b9150612b1482612aad565b604082019050919050565b60006020820190508181036000830152612b3881612afc565b9050919050565b6000612b4a826120bf565b9150612b55836120bf565b9250828202612b63816120bf565b91508282048414831517612b7a57612b79612712565b5b5092915050565b7f4e487b7100000000000000000000000000000000000000000000000000000000600052601260045260246000fd5b6000612bbb826120bf565b9150612bc6836120bf565b925082612bd657612bd5612b81565b5b828204905092915050565b6000612bec826120bf565b9150612bf7836120bf565b9250828203905081811115612c0f57612c0e612712565b5b92915050565b600060a082019050612c2a6000830188612229565b612c376020830187612229565b612c446040830186612229565b612c51606083018561216b565b612c5e6080830184612280565b9695505050505050565b6000608082019050612c7d6000830187612229565b612c8a60208301866121f5565b612c976040830185612229565b612ca46060830184612229565b95945050505050565b7f4e487b7100000000000000000000000000000000000000000000000000000000600052602160045260246000fdfea2646970667358221220d936a0d9550e3e57edb251e961e7850d14d7446a906d7d8f6774cb88e0164fe564736f6c63430008140033",
  "linkReferences": {},
  "deployedLinkReferences": {}
}